{"abi":[{"inputs":[{"internalType":"uint256","name":"minimum","type":"uint256"}],"name":"createCampain","outputs":[],"stateMutability":"nonpayable","type":"function"},{"inputs":[{"internalType":"uint256","name":"","type":"uint256"}],"name":"deployedCampains","outputs":[{"internalType":"address","name":"","type":"address"}],"stateMutability":"view","type":"function"},{"inputs":[],"name":"getDeployedCampains","outputs":[{"internalType":"address[]","name":"","type":"address[]"}],"stateMutability":"view","type":"function"}],"devdoc":{"kind":"dev","methods":{},"version":1},"evm":{"assembly":"    /* \"Campain.sol\":25:382  contract CampainFactory{... */\n  mstore(0x40, 0x80)\n  callvalue\n  dup1\n  iszero\n  tag_1\n  jumpi\n  0x00\n  dup1\n  revert\ntag_1:\n  pop\n  dataSize(sub_0)\n  dup1\n  dataOffset(sub_0)\n  0x00\n  codecopy\n  0x00\n  return\nstop\n\nsub_0: assembly {\n        /* \"Campain.sol\":25:382  contract CampainFactory{... */\n      mstore(0x40, 0x80)\n      callvalue\n      dup1\n      iszero\n      tag_1\n      jumpi\n      0x00\n      dup1\n      revert\n    tag_1:\n      pop\n      jumpi(tag_2, lt(calldatasize, 0x04))\n      shr(0xe0, calldataload(0x00))\n      dup1\n      0x4af9edfe\n      eq\n      tag_3\n      jumpi\n      dup1\n      0x939fc276\n      eq\n      tag_4\n      jumpi\n      dup1\n      0xd9c4ee1e\n      eq\n      tag_5\n      jumpi\n    tag_2:\n      0x00\n      dup1\n      revert\n        /* \"Campain.sol\":55:88  address[] public deployedCampains */\n    tag_3:\n      tag_6\n      0x04\n      dup1\n      calldatasize\n      sub\n      dup2\n      add\n      swap1\n      tag_7\n      swap2\n      swap1\n      tag_8\n      jump\t// in\n    tag_7:\n      tag_9\n      jump\t// in\n    tag_6:\n      mload(0x40)\n      tag_10\n      swap2\n      swap1\n      tag_11\n      jump\t// in\n    tag_10:\n      mload(0x40)\n      dup1\n      swap2\n      sub\n      swap1\n      return\n        /* \"Campain.sol\":269:379  function getDeployedCampains() public view returns(address[] memory){... */\n    tag_4:\n      tag_12\n      tag_13\n      jump\t// in\n    tag_12:\n      mload(0x40)\n      tag_14\n      swap2\n      swap1\n      tag_15\n      jump\t// in\n    tag_14:\n      mload(0x40)\n      dup1\n      swap2\n      sub\n      swap1\n      return\n        /* \"Campain.sol\":95:261  function createCampain(uint minimum) public{... */\n    tag_5:\n      tag_16\n      0x04\n      dup1\n      calldatasize\n      sub\n      dup2\n      add\n      swap1\n      tag_17\n      swap2\n      swap1\n      tag_8\n      jump\t// in\n    tag_17:\n      tag_18\n      jump\t// in\n    tag_16:\n      stop\n        /* \"Campain.sol\":55:88  address[] public deployedCampains */\n    tag_9:\n      0x00\n      dup2\n      dup2\n      sload\n      dup2\n      lt\n      tag_19\n      jumpi\n      0x00\n      dup1\n      revert\n    tag_19:\n      swap1\n      0x00\n      mstore\n      keccak256(0x00, 0x20)\n      add\n      0x00\n      swap2\n      pop\n      sload\n      swap1\n      0x0100\n      exp\n      swap1\n      div\n      0xffffffffffffffffffffffffffffffffffffffff\n      and\n      dup2\n      jump\t// out\n        /* \"Campain.sol\":269:379  function getDeployedCampains() public view returns(address[] memory){... */\n    tag_13:\n        /* \"Campain.sol\":320:336  address[] memory */\n      0x60\n        /* \"Campain.sol\":355:371  deployedCampains */\n      0x00\n        /* \"Campain.sol\":348:371  return deployedCampains */\n      dup1\n      sload\n      dup1\n      0x20\n      mul\n      0x20\n      add\n      mload(0x40)\n      swap1\n      dup2\n      add\n      0x40\n      mstore\n      dup1\n      swap3\n      swap2\n      swap1\n      dup2\n      dup2\n      mstore\n      0x20\n      add\n      dup3\n      dup1\n      sload\n      dup1\n      iszero\n      tag_22\n      jumpi\n      0x20\n      mul\n      dup3\n      add\n      swap2\n      swap1\n      0x00\n      mstore\n      keccak256(0x00, 0x20)\n      swap1\n    tag_23:\n      dup2\n      0x00\n      swap1\n      sload\n      swap1\n      0x0100\n      exp\n      swap1\n      div\n      0xffffffffffffffffffffffffffffffffffffffff\n      and\n      0xffffffffffffffffffffffffffffffffffffffff\n      and\n      dup2\n      mstore\n      0x20\n      add\n      swap1\n      0x01\n      add\n      swap1\n      dup1\n      dup4\n      gt\n      tag_23\n      jumpi\n    tag_22:\n      pop\n      pop\n      pop\n      pop\n      pop\n      swap1\n      pop\n        /* \"Campain.sol\":269:379  function getDeployedCampains() public view returns(address[] memory){... */\n      swap1\n      jump\t// out\n        /* \"Campain.sol\":95:261  function createCampain(uint minimum) public{... */\n    tag_18:\n        /* \"Campain.sol\":149:167  address newCampain */\n      0x00\n        /* \"Campain.sol\":189:196  minimum */\n      dup2\n        /* \"Campain.sol\":197:207  msg.sender */\n      caller\n        /* \"Campain.sol\":177:208  new Campain(minimum,msg.sender) */\n      mload(0x40)\n      tag_25\n      swap1\n      tag_26\n      jump\t// in\n    tag_25:\n      tag_27\n      swap3\n      swap2\n      swap1\n      tag_28\n      jump\t// in\n    tag_27:\n      mload(0x40)\n      dup1\n      swap2\n      sub\n      swap1\n      0x00\n      create\n      dup1\n      iszero\n      dup1\n      iszero\n      tag_29\n      jumpi\n      returndatasize\n      0x00\n      dup1\n      returndatacopy\n      revert(0x00, returndatasize)\n    tag_29:\n      pop\n        /* \"Campain.sol\":149:209  address newCampain =address(new Campain(minimum,msg.sender)) */\n      swap1\n      pop\n        /* \"Campain.sol\":220:236  deployedCampains */\n      0x00\n        /* \"Campain.sol\":242:252  newCampain */\n      dup2\n        /* \"Campain.sol\":220:253  deployedCampains.push(newCampain) */\n      swap1\n      dup1\n      0x01\n      dup2\n      sload\n      add\n      dup1\n      dup3\n      sstore\n      dup1\n      swap2\n      pop\n      pop\n      0x01\n      swap1\n      sub\n      swap1\n      0x00\n      mstore\n      keccak256(0x00, 0x20)\n      add\n      0x00\n      swap1\n      swap2\n      swap1\n      swap2\n      swap1\n      swap2\n      0x0100\n      exp\n      dup2\n      sload\n      dup2\n      0xffffffffffffffffffffffffffffffffffffffff\n      mul\n      not\n      and\n      swap1\n      dup4\n      0xffffffffffffffffffffffffffffffffffffffff\n      and\n      mul\n      or\n      swap1\n      sstore\n      pop\n        /* \"Campain.sol\":138:261  {... */\n      pop\n        /* \"Campain.sol\":95:261  function createCampain(uint minimum) public{... */\n      pop\n      jump\t// out\n    tag_26:\n      dataSize(sub_0)\n      dup1\n      dataOffset(sub_0)\n      dup4\n      codecopy\n      add\n      swap1\n      jump\t// out\n        /* \"#utility.yul\":88:205   */\n    tag_32:\n        /* \"#utility.yul\":197:198   */\n      0x00\n        /* \"#utility.yul\":194:195   */\n      dup1\n        /* \"#utility.yul\":187:199   */\n      revert\n        /* \"#utility.yul\":334:411   */\n    tag_34:\n        /* \"#utility.yul\":371:378   */\n      0x00\n        /* \"#utility.yul\":400:405   */\n      dup2\n        /* \"#utility.yul\":389:405   */\n      swap1\n      pop\n        /* \"#utility.yul\":334:411   */\n      swap2\n      swap1\n      pop\n      jump\t// out\n        /* \"#utility.yul\":417:539   */\n    tag_35:\n        /* \"#utility.yul\":490:514   */\n      tag_54\n        /* \"#utility.yul\":508:513   */\n      dup2\n        /* \"#utility.yul\":490:514   */\n      tag_34\n      jump\t// in\n    tag_54:\n        /* \"#utility.yul\":483:488   */\n      dup2\n        /* \"#utility.yul\":480:515   */\n      eq\n        /* \"#utility.yul\":470:533   */\n      tag_55\n      jumpi\n        /* \"#utility.yul\":529:530   */\n      0x00\n        /* \"#utility.yul\":526:527   */\n      dup1\n        /* \"#utility.yul\":519:531   */\n      revert\n        /* \"#utility.yul\":470:533   */\n    tag_55:\n        /* \"#utility.yul\":417:539   */\n      pop\n      jump\t// out\n        /* \"#utility.yul\":545:684   */\n    tag_36:\n        /* \"#utility.yul\":591:596   */\n      0x00\n        /* \"#utility.yul\":629:635   */\n      dup2\n        /* \"#utility.yul\":616:636   */\n      calldataload\n        /* \"#utility.yul\":607:636   */\n      swap1\n      pop\n        /* \"#utility.yul\":645:678   */\n      tag_57\n        /* \"#utility.yul\":672:677   */\n      dup2\n        /* \"#utility.yul\":645:678   */\n      tag_35\n      jump\t// in\n    tag_57:\n        /* \"#utility.yul\":545:684   */\n      swap3\n      swap2\n      pop\n      pop\n      jump\t// out\n        /* \"#utility.yul\":690:1019   */\n    tag_8:\n        /* \"#utility.yul\":749:755   */\n      0x00\n        /* \"#utility.yul\":798:800   */\n      0x20\n        /* \"#utility.yul\":786:795   */\n      dup3\n        /* \"#utility.yul\":777:784   */\n      dup5\n        /* \"#utility.yul\":773:796   */\n      sub\n        /* \"#utility.yul\":769:801   */\n      slt\n        /* \"#utility.yul\":766:885   */\n      iszero\n      tag_59\n      jumpi\n        /* \"#utility.yul\":804:883   */\n      tag_60\n      tag_32\n      jump\t// in\n    tag_60:\n        /* \"#utility.yul\":766:885   */\n    tag_59:\n        /* \"#utility.yul\":924:925   */\n      0x00\n        /* \"#utility.yul\":949:1002   */\n      tag_61\n        /* \"#utility.yul\":994:1001   */\n      dup5\n        /* \"#utility.yul\":985:991   */\n      dup3\n        /* \"#utility.yul\":974:983   */\n      dup6\n        /* \"#utility.yul\":970:992   */\n      add\n        /* \"#utility.yul\":949:1002   */\n      tag_36\n      jump\t// in\n    tag_61:\n        /* \"#utility.yul\":939:1002   */\n      swap2\n      pop\n        /* \"#utility.yul\":895:1012   */\n      pop\n        /* \"#utility.yul\":690:1019   */\n      swap3\n      swap2\n      pop\n      pop\n      jump\t// out\n        /* \"#utility.yul\":1025:1151   */\n    tag_37:\n        /* \"#utility.yul\":1062:1069   */\n      0x00\n        /* \"#utility.yul\":1102:1144   */\n      0xffffffffffffffffffffffffffffffffffffffff\n        /* \"#utility.yul\":1095:1100   */\n      dup3\n        /* \"#utility.yul\":1091:1145   */\n      and\n        /* \"#utility.yul\":1080:1145   */\n      swap1\n      pop\n        /* \"#utility.yul\":1025:1151   */\n      swap2\n      swap1\n      pop\n      jump\t// out\n        /* \"#utility.yul\":1157:1253   */\n    tag_38:\n        /* \"#utility.yul\":1194:1201   */\n      0x00\n        /* \"#utility.yul\":1223:1247   */\n      tag_64\n        /* \"#utility.yul\":1241:1246   */\n      dup3\n        /* \"#utility.yul\":1223:1247   */\n      tag_37\n      jump\t// in\n    tag_64:\n        /* \"#utility.yul\":1212:1247   */\n      swap1\n      pop\n        /* \"#utility.yul\":1157:1253   */\n      swap2\n      swap1\n      pop\n      jump\t// out\n        /* \"#utility.yul\":1259:1377   */\n    tag_39:\n        /* \"#utility.yul\":1346:1370   */\n      tag_66\n        /* \"#utility.yul\":1364:1369   */\n      dup2\n        /* \"#utility.yul\":1346:1370   */\n      tag_38\n      jump\t// in\n    tag_66:\n        /* \"#utility.yul\":1341:1344   */\n      dup3\n        /* \"#utility.yul\":1334:1371   */\n      mstore\n        /* \"#utility.yul\":1259:1377   */\n      pop\n      pop\n      jump\t// out\n        /* \"#utility.yul\":1383:1605   */\n    tag_11:\n        /* \"#utility.yul\":1476:1480   */\n      0x00\n        /* \"#utility.yul\":1514:1516   */\n      0x20\n        /* \"#utility.yul\":1503:1512   */\n      dup3\n        /* \"#utility.yul\":1499:1517   */\n      add\n        /* \"#utility.yul\":1491:1517   */\n      swap1\n      pop\n        /* \"#utility.yul\":1527:1598   */\n      tag_68\n        /* \"#utility.yul\":1595:1596   */\n      0x00\n        /* \"#utility.yul\":1584:1593   */\n      dup4\n        /* \"#utility.yul\":1580:1597   */\n      add\n        /* \"#utility.yul\":1571:1577   */\n      dup5\n        /* \"#utility.yul\":1527:1598   */\n      tag_39\n      jump\t// in\n    tag_68:\n        /* \"#utility.yul\":1383:1605   */\n      swap3\n      swap2\n      pop\n      pop\n      jump\t// out\n        /* \"#utility.yul\":1611:1725   */\n    tag_40:\n        /* \"#utility.yul\":1678:1684   */\n      0x00\n        /* \"#utility.yul\":1712:1717   */\n      dup2\n        /* \"#utility.yul\":1706:1718   */\n      mload\n        /* \"#utility.yul\":1696:1718   */\n      swap1\n      pop\n        /* \"#utility.yul\":1611:1725   */\n      swap2\n      swap1\n      pop\n      jump\t// out\n        /* \"#utility.yul\":1731:1915   */\n    tag_41:\n        /* \"#utility.yul\":1830:1841   */\n      0x00\n        /* \"#utility.yul\":1864:1870   */\n      dup3\n        /* \"#utility.yul\":1859:1862   */\n      dup3\n        /* \"#utility.yul\":1852:1871   */\n      mstore\n        /* \"#utility.yul\":1904:1908   */\n      0x20\n        /* \"#utility.yul\":1899:1902   */\n      dup3\n        /* \"#utility.yul\":1895:1909   */\n      add\n        /* \"#utility.yul\":1880:1909   */\n      swap1\n      pop\n        /* \"#utility.yul\":1731:1915   */\n      swap3\n      swap2\n      pop\n      pop\n      jump\t// out\n        /* \"#utility.yul\":1921:2053   */\n    tag_42:\n        /* \"#utility.yul\":1988:1992   */\n      0x00\n        /* \"#utility.yul\":2011:2014   */\n      dup2\n        /* \"#utility.yul\":2003:2014   */\n      swap1\n      pop\n        /* \"#utility.yul\":2041:2045   */\n      0x20\n        /* \"#utility.yul\":2036:2039   */\n      dup3\n        /* \"#utility.yul\":2032:2046   */\n      add\n        /* \"#utility.yul\":2024:2046   */\n      swap1\n      pop\n        /* \"#utility.yul\":1921:2053   */\n      swap2\n      swap1\n      pop\n      jump\t// out\n        /* \"#utility.yul\":2059:2167   */\n    tag_43:\n        /* \"#utility.yul\":2136:2160   */\n      tag_73\n        /* \"#utility.yul\":2154:2159   */\n      dup2\n        /* \"#utility.yul\":2136:2160   */\n      tag_38\n      jump\t// in\n    tag_73:\n        /* \"#utility.yul\":2131:2134   */\n      dup3\n        /* \"#utility.yul\":2124:2161   */\n      mstore\n        /* \"#utility.yul\":2059:2167   */\n      pop\n      pop\n      jump\t// out\n        /* \"#utility.yul\":2173:2352   */\n    tag_44:\n        /* \"#utility.yul\":2242:2252   */\n      0x00\n        /* \"#utility.yul\":2263:2309   */\n      tag_75\n        /* \"#utility.yul\":2305:2308   */\n      dup4\n        /* \"#utility.yul\":2297:2303   */\n      dup4\n        /* \"#utility.yul\":2263:2309   */\n      tag_43\n      jump\t// in\n    tag_75:\n        /* \"#utility.yul\":2341:2345   */\n      0x20\n        /* \"#utility.yul\":2336:2339   */\n      dup4\n        /* \"#utility.yul\":2332:2346   */\n      add\n        /* \"#utility.yul\":2318:2346   */\n      swap1\n      pop\n        /* \"#utility.yul\":2173:2352   */\n      swap3\n      swap2\n      pop\n      pop\n      jump\t// out\n        /* \"#utility.yul\":2358:2471   */\n    tag_45:\n        /* \"#utility.yul\":2428:2432   */\n      0x00\n        /* \"#utility.yul\":2460:2464   */\n      0x20\n        /* \"#utility.yul\":2455:2458   */\n      dup3\n        /* \"#utility.yul\":2451:2465   */\n      add\n        /* \"#utility.yul\":2443:2465   */\n      swap1\n      pop\n        /* \"#utility.yul\":2358:2471   */\n      swap2\n      swap1\n      pop\n      jump\t// out\n        /* \"#utility.yul\":2507:3239   */\n    tag_46:\n        /* \"#utility.yul\":2626:2629   */\n      0x00\n        /* \"#utility.yul\":2655:2709   */\n      tag_78\n        /* \"#utility.yul\":2703:2708   */\n      dup3\n        /* \"#utility.yul\":2655:2709   */\n      tag_40\n      jump\t// in\n    tag_78:\n        /* \"#utility.yul\":2725:2811   */\n      tag_79\n        /* \"#utility.yul\":2804:2810   */\n      dup2\n        /* \"#utility.yul\":2799:2802   */\n      dup6\n        /* \"#utility.yul\":2725:2811   */\n      tag_41\n      jump\t// in\n    tag_79:\n        /* \"#utility.yul\":2718:2811   */\n      swap4\n      pop\n        /* \"#utility.yul\":2835:2891   */\n      tag_80\n        /* \"#utility.yul\":2885:2890   */\n      dup4\n        /* \"#utility.yul\":2835:2891   */\n      tag_42\n      jump\t// in\n    tag_80:\n        /* \"#utility.yul\":2914:2921   */\n      dup1\n        /* \"#utility.yul\":2945:2946   */\n      0x00\n        /* \"#utility.yul\":2930:3214   */\n    tag_81:\n        /* \"#utility.yul\":2955:2961   */\n      dup4\n        /* \"#utility.yul\":2952:2953   */\n      dup2\n        /* \"#utility.yul\":2949:2962   */\n      lt\n        /* \"#utility.yul\":2930:3214   */\n      iszero\n      tag_83\n      jumpi\n        /* \"#utility.yul\":3031:3037   */\n      dup2\n        /* \"#utility.yul\":3025:3038   */\n      mload\n        /* \"#utility.yul\":3058:3121   */\n      tag_84\n        /* \"#utility.yul\":3117:3120   */\n      dup9\n        /* \"#utility.yul\":3102:3115   */\n      dup3\n        /* \"#utility.yul\":3058:3121   */\n      tag_44\n      jump\t// in\n    tag_84:\n        /* \"#utility.yul\":3051:3121   */\n      swap8\n      pop\n        /* \"#utility.yul\":3144:3204   */\n      tag_85\n        /* \"#utility.yul\":3197:3203   */\n      dup4\n        /* \"#utility.yul\":3144:3204   */\n      tag_45\n      jump\t// in\n    tag_85:\n        /* \"#utility.yul\":3134:3204   */\n      swap3\n      pop\n        /* \"#utility.yul\":2990:3214   */\n      pop\n        /* \"#utility.yul\":2977:2978   */\n      0x01\n        /* \"#utility.yul\":2974:2975   */\n      dup2\n        /* \"#utility.yul\":2970:2979   */\n      add\n        /* \"#utility.yul\":2965:2979   */\n      swap1\n      pop\n        /* \"#utility.yul\":2930:3214   */\n      jump(tag_81)\n    tag_83:\n        /* \"#utility.yul\":2934:2948   */\n      pop\n        /* \"#utility.yul\":3230:3233   */\n      dup6\n        /* \"#utility.yul\":3223:3233   */\n      swap4\n      pop\n        /* \"#utility.yul\":2631:3239   */\n      pop\n      pop\n      pop\n        /* \"#utility.yul\":2507:3239   */\n      swap3\n      swap2\n      pop\n      pop\n      jump\t// out\n        /* \"#utility.yul\":3245:3618   */\n    tag_15:\n        /* \"#utility.yul\":3388:3392   */\n      0x00\n        /* \"#utility.yul\":3426:3428   */\n      0x20\n        /* \"#utility.yul\":3415:3424   */\n      dup3\n        /* \"#utility.yul\":3411:3429   */\n      add\n        /* \"#utility.yul\":3403:3429   */\n      swap1\n      pop\n        /* \"#utility.yul\":3475:3484   */\n      dup2\n        /* \"#utility.yul\":3469:3473   */\n      dup2\n        /* \"#utility.yul\":3465:3485   */\n      sub\n        /* \"#utility.yul\":3461:3462   */\n      0x00\n        /* \"#utility.yul\":3450:3459   */\n      dup4\n        /* \"#utility.yul\":3446:3463   */\n      add\n        /* \"#utility.yul\":3439:3486   */\n      mstore\n        /* \"#utility.yul\":3503:3611   */\n      tag_87\n        /* \"#utility.yul\":3606:3610   */\n      dup2\n        /* \"#utility.yul\":3597:3603   */\n      dup5\n        /* \"#utility.yul\":3503:3611   */\n      tag_46\n      jump\t// in\n    tag_87:\n        /* \"#utility.yul\":3495:3611   */\n      swap1\n      pop\n        /* \"#utility.yul\":3245:3618   */\n      swap3\n      swap2\n      pop\n      pop\n      jump\t// out\n        /* \"#utility.yul\":3624:3742   */\n    tag_47:\n        /* \"#utility.yul\":3711:3735   */\n      tag_89\n        /* \"#utility.yul\":3729:3734   */\n      dup2\n        /* \"#utility.yul\":3711:3735   */\n      tag_34\n      jump\t// in\n    tag_89:\n        /* \"#utility.yul\":3706:3709   */\n      dup3\n        /* \"#utility.yul\":3699:3736   */\n      mstore\n        /* \"#utility.yul\":3624:3742   */\n      pop\n      pop\n      jump\t// out\n        /* \"#utility.yul\":3748:4080   */\n    tag_28:\n        /* \"#utility.yul\":3869:3873   */\n      0x00\n        /* \"#utility.yul\":3907:3909   */\n      0x40\n        /* \"#utility.yul\":3896:3905   */\n      dup3\n        /* \"#utility.yul\":3892:3910   */\n      add\n        /* \"#utility.yul\":3884:3910   */\n      swap1\n      pop\n        /* \"#utility.yul\":3920:3991   */\n      tag_91\n        /* \"#utility.yul\":3988:3989   */\n      0x00\n        /* \"#utility.yul\":3977:3986   */\n      dup4\n        /* \"#utility.yul\":3973:3990   */\n      add\n        /* \"#utility.yul\":3964:3970   */\n      dup6\n        /* \"#utility.yul\":3920:3991   */\n      tag_47\n      jump\t// in\n    tag_91:\n        /* \"#utility.yul\":4001:4073   */\n      tag_92\n        /* \"#utility.yul\":4069:4071   */\n      0x20\n        /* \"#utility.yul\":4058:4067   */\n      dup4\n        /* \"#utility.yul\":4054:4072   */\n      add\n        /* \"#utility.yul\":4045:4051   */\n      dup5\n        /* \"#utility.yul\":4001:4073   */\n      tag_39\n      jump\t// in\n    tag_92:\n        /* \"#utility.yul\":3748:4080   */\n      swap4\n      swap3\n      pop\n      pop\n      pop\n      jump\t// out\n    stop\n\n    sub_0: assembly {\n            /* \"Campain.sol\":384:2605  contract Campain{... */\n          mstore(0x40, 0x80)\n            /* \"Campain.sol\":957:1074  constructor(uint minimum,address creator){... */\n          callvalue\n          dup1\n          iszero\n          tag_1\n          jumpi\n          0x00\n          dup1\n          revert\n        tag_1:\n          pop\n          mload(0x40)\n          sub(codesize, bytecodeSize)\n          dup1\n          bytecodeSize\n          dup4\n          codecopy\n          dup2\n          dup2\n          add\n          0x40\n          mstore\n          dup2\n          add\n          swap1\n          tag_2\n          swap2\n          swap1\n          tag_3\n          jump\t// in\n        tag_2:\n            /* \"Campain.sol\":1019:1026  creator */\n          dup1\n            /* \"Campain.sol\":1009:1016  manager */\n          0x00\n          dup1\n            /* \"Campain.sol\":1009:1026  manager = creator */\n          0x0100\n          exp\n          dup2\n          sload\n          dup2\n          0xffffffffffffffffffffffffffffffffffffffff\n          mul\n          not\n          and\n          swap1\n          dup4\n          0xffffffffffffffffffffffffffffffffffffffff\n          and\n          mul\n          or\n          swap1\n          sstore\n          pop\n            /* \"Campain.sol\":1059:1066  minimum */\n          dup2\n            /* \"Campain.sol\":1037:1056  minimumContribution */\n          0x01\n            /* \"Campain.sol\":1037:1066  minimumContribution = minimum */\n          dup2\n          swap1\n          sstore\n          pop\n            /* \"Campain.sol\":957:1074  constructor(uint minimum,address creator){... */\n          pop\n          pop\n            /* \"Campain.sol\":384:2605  contract Campain{... */\n          jump(tag_6)\n            /* \"#utility.yul\":88:205   */\n        tag_8:\n            /* \"#utility.yul\":197:198   */\n          0x00\n            /* \"#utility.yul\":194:195   */\n          dup1\n            /* \"#utility.yul\":187:199   */\n          revert\n            /* \"#utility.yul\":334:411   */\n        tag_10:\n            /* \"#utility.yul\":371:378   */\n          0x00\n            /* \"#utility.yul\":400:405   */\n          dup2\n            /* \"#utility.yul\":389:405   */\n          swap1\n          pop\n            /* \"#utility.yul\":334:411   */\n          swap2\n          swap1\n          pop\n          jump\t// out\n            /* \"#utility.yul\":417:539   */\n        tag_11:\n            /* \"#utility.yul\":490:514   */\n          tag_23\n            /* \"#utility.yul\":508:513   */\n          dup2\n            /* \"#utility.yul\":490:514   */\n          tag_10\n          jump\t// in\n        tag_23:\n            /* \"#utility.yul\":483:488   */\n          dup2\n            /* \"#utility.yul\":480:515   */\n          eq\n            /* \"#utility.yul\":470:533   */\n          tag_24\n          jumpi\n            /* \"#utility.yul\":529:530   */\n          0x00\n            /* \"#utility.yul\":526:527   */\n          dup1\n            /* \"#utility.yul\":519:531   */\n          revert\n            /* \"#utility.yul\":470:533   */\n        tag_24:\n            /* \"#utility.yul\":417:539   */\n          pop\n          jump\t// out\n            /* \"#utility.yul\":545:688   */\n        tag_12:\n            /* \"#utility.yul\":602:607   */\n          0x00\n            /* \"#utility.yul\":633:639   */\n          dup2\n            /* \"#utility.yul\":627:640   */\n          mload\n            /* \"#utility.yul\":618:640   */\n          swap1\n          pop\n            /* \"#utility.yul\":649:682   */\n          tag_26\n            /* \"#utility.yul\":676:681   */\n          dup2\n            /* \"#utility.yul\":649:682   */\n          tag_11\n          jump\t// in\n        tag_26:\n            /* \"#utility.yul\":545:688   */\n          swap3\n          swap2\n          pop\n          pop\n          jump\t// out\n            /* \"#utility.yul\":694:820   */\n        tag_13:\n            /* \"#utility.yul\":731:738   */\n          0x00\n            /* \"#utility.yul\":771:813   */\n          0xffffffffffffffffffffffffffffffffffffffff\n            /* \"#utility.yul\":764:769   */\n          dup3\n            /* \"#utility.yul\":760:814   */\n          and\n            /* \"#utility.yul\":749:814   */\n          swap1\n          pop\n            /* \"#utility.yul\":694:820   */\n          swap2\n          swap1\n          pop\n          jump\t// out\n            /* \"#utility.yul\":826:922   */\n        tag_14:\n            /* \"#utility.yul\":863:870   */\n          0x00\n            /* \"#utility.yul\":892:916   */\n          tag_29\n            /* \"#utility.yul\":910:915   */\n          dup3\n            /* \"#utility.yul\":892:916   */\n          tag_13\n          jump\t// in\n        tag_29:\n            /* \"#utility.yul\":881:916   */\n          swap1\n          pop\n            /* \"#utility.yul\":826:922   */\n          swap2\n          swap1\n          pop\n          jump\t// out\n            /* \"#utility.yul\":928:1050   */\n        tag_15:\n            /* \"#utility.yul\":1001:1025   */\n          tag_31\n            /* \"#utility.yul\":1019:1024   */\n          dup2\n            /* \"#utility.yul\":1001:1025   */\n          tag_14\n          jump\t// in\n        tag_31:\n            /* \"#utility.yul\":994:999   */\n          dup2\n            /* \"#utility.yul\":991:1026   */\n          eq\n            /* \"#utility.yul\":981:1044   */\n          tag_32\n          jumpi\n            /* \"#utility.yul\":1040:1041   */\n          0x00\n            /* \"#utility.yul\":1037:1038   */\n          dup1\n            /* \"#utility.yul\":1030:1042   */\n          revert\n            /* \"#utility.yul\":981:1044   */\n        tag_32:\n            /* \"#utility.yul\":928:1050   */\n          pop\n          jump\t// out\n            /* \"#utility.yul\":1056:1199   */\n        tag_16:\n            /* \"#utility.yul\":1113:1118   */\n          0x00\n            /* \"#utility.yul\":1144:1150   */\n          dup2\n            /* \"#utility.yul\":1138:1151   */\n          mload\n            /* \"#utility.yul\":1129:1151   */\n          swap1\n          pop\n            /* \"#utility.yul\":1160:1193   */\n          tag_34\n            /* \"#utility.yul\":1187:1192   */\n          dup2\n            /* \"#utility.yul\":1160:1193   */\n          tag_15\n          jump\t// in\n        tag_34:\n            /* \"#utility.yul\":1056:1199   */\n          swap3\n          swap2\n          pop\n          pop\n          jump\t// out\n            /* \"#utility.yul\":1205:1712   */\n        tag_3:\n            /* \"#utility.yul\":1284:1290   */\n          0x00\n            /* \"#utility.yul\":1292:1298   */\n          dup1\n            /* \"#utility.yul\":1341:1343   */\n          0x40\n            /* \"#utility.yul\":1329:1338   */\n          dup4\n            /* \"#utility.yul\":1320:1327   */\n          dup6\n            /* \"#utility.yul\":1316:1339   */\n          sub\n            /* \"#utility.yul\":1312:1344   */\n          slt\n            /* \"#utility.yul\":1309:1428   */\n          iszero\n          tag_36\n          jumpi\n            /* \"#utility.yul\":1347:1426   */\n          tag_37\n          tag_8\n          jump\t// in\n        tag_37:\n            /* \"#utility.yul\":1309:1428   */\n        tag_36:\n            /* \"#utility.yul\":1467:1468   */\n          0x00\n            /* \"#utility.yul\":1492:1556   */\n          tag_38\n            /* \"#utility.yul\":1548:1555   */\n          dup6\n            /* \"#utility.yul\":1539:1545   */\n          dup3\n            /* \"#utility.yul\":1528:1537   */\n          dup7\n            /* \"#utility.yul\":1524:1546   */\n          add\n            /* \"#utility.yul\":1492:1556   */\n          tag_12\n          jump\t// in\n        tag_38:\n            /* \"#utility.yul\":1482:1556   */\n          swap3\n          pop\n            /* \"#utility.yul\":1438:1566   */\n          pop\n            /* \"#utility.yul\":1605:1607   */\n          0x20\n            /* \"#utility.yul\":1631:1695   */\n          tag_39\n            /* \"#utility.yul\":1687:1694   */\n          dup6\n            /* \"#utility.yul\":1678:1684   */\n          dup3\n            /* \"#utility.yul\":1667:1676   */\n          dup7\n            /* \"#utility.yul\":1663:1685   */\n          add\n            /* \"#utility.yul\":1631:1695   */\n          tag_16\n          jump\t// in\n        tag_39:\n            /* \"#utility.yul\":1621:1695   */\n          swap2\n          pop\n            /* \"#utility.yul\":1576:1705   */\n          pop\n            /* \"#utility.yul\":1205:1712   */\n          swap3\n          pop\n          swap3\n          swap1\n          pop\n          jump\t// out\n            /* \"Campain.sol\":384:2605  contract Campain{... */\n        tag_6:\n          dataSize(sub_0)\n          dup1\n          dataOffset(sub_0)\n          0x00\n          codecopy\n          0x00\n          return\n        stop\n\n        sub_0: assembly {\n                /* \"Campain.sol\":384:2605  contract Campain{... */\n              mstore(0x40, 0x80)\n              jumpi(tag_1, lt(calldatasize, 0x04))\n              shr(0xe0, calldataload(0x00))\n              dup1\n              0x8a9cfd55\n              gt\n              tag_10\n              jumpi\n              dup1\n              0x8a9cfd55\n              eq\n              tag_6\n              jumpi\n              dup1\n              0x937e09b1\n              eq\n              tag_7\n              jumpi\n              dup1\n              0xd7bb99ba\n              eq\n              tag_8\n              jumpi\n              dup1\n              0xd7d1bbdb\n              eq\n              tag_9\n              jumpi\n              jump(tag_1)\n            tag_10:\n              dup1\n              0x03441006\n              eq\n              tag_2\n              jumpi\n              dup1\n              0x0a144391\n              eq\n              tag_3\n              jumpi\n              dup1\n              0x481c6a75\n              eq\n              tag_4\n              jumpi\n              dup1\n              0x82fde093\n              eq\n              tag_5\n              jumpi\n            tag_1:\n              0x00\n              dup1\n              revert\n                /* \"Campain.sol\":2295:2602  function finalizeRequest(uint index) public restricted{... */\n            tag_2:\n              callvalue\n              dup1\n              iszero\n              tag_11\n              jumpi\n              0x00\n              dup1\n              revert\n            tag_11:\n              pop\n              tag_12\n              0x04\n              dup1\n              calldatasize\n              sub\n              dup2\n              add\n              swap1\n              tag_13\n              swap2\n              swap1\n              tag_14\n              jump\t// in\n            tag_13:\n              tag_15\n              jump\t// in\n            tag_12:\n              stop\n                /* \"Campain.sol\":715:756  mapping(address => bool) public approvers */\n            tag_3:\n              callvalue\n              dup1\n              iszero\n              tag_16\n              jumpi\n              0x00\n              dup1\n              revert\n            tag_16:\n              pop\n              tag_17\n              0x04\n              dup1\n              calldatasize\n              sub\n              dup2\n              add\n              swap1\n              tag_18\n              swap2\n              swap1\n              tag_19\n              jump\t// in\n            tag_18:\n              tag_20\n              jump\t// in\n            tag_17:\n              mload(0x40)\n              tag_21\n              swap2\n              swap1\n              tag_22\n              jump\t// in\n            tag_21:\n              mload(0x40)\n              dup1\n              swap2\n              sub\n              swap1\n              return\n                /* \"Campain.sol\":615:637  address public manager */\n            tag_4:\n              callvalue\n              dup1\n              iszero\n              tag_23\n              jumpi\n              0x00\n              dup1\n              revert\n            tag_23:\n              pop\n              tag_24\n              tag_25\n              jump\t// in\n            tag_24:\n              mload(0x40)\n              tag_26\n              swap2\n              swap1\n              tag_27\n              jump\t// in\n            tag_26:\n              mload(0x40)\n              dup1\n              swap2\n              sub\n              swap1\n              return\n                /* \"Campain.sol\":682:708  uint public approversCount */\n            tag_5:\n              callvalue\n              dup1\n              iszero\n              tag_28\n              jumpi\n              0x00\n              dup1\n              revert\n            tag_28:\n              pop\n              tag_29\n              tag_30\n              jump\t// in\n            tag_29:\n              mload(0x40)\n              tag_31\n              swap2\n              swap1\n              tag_32\n              jump\t// in\n            tag_31:\n              mload(0x40)\n              dup1\n              swap2\n              sub\n              swap1\n              return\n                /* \"Campain.sol\":1250:1970  function createRequest(string memory description,uint value,address recipient) public restricted{... */\n            tag_6:\n              callvalue\n              dup1\n              iszero\n              tag_33\n              jumpi\n              0x00\n              dup1\n              revert\n            tag_33:\n              pop\n              tag_34\n              0x04\n              dup1\n              calldatasize\n              sub\n              dup2\n              add\n              swap1\n              tag_35\n              swap2\n              swap1\n              tag_36\n              jump\t// in\n            tag_35:\n              tag_37\n              jump\t// in\n            tag_34:\n              stop\n                /* \"Campain.sol\":644:675  uint public minimumContribution */\n            tag_7:\n              callvalue\n              dup1\n              iszero\n              tag_38\n              jumpi\n              0x00\n              dup1\n              revert\n            tag_38:\n              pop\n              tag_39\n              tag_40\n              jump\t// in\n            tag_39:\n              mload(0x40)\n              tag_41\n              swap2\n              swap1\n              tag_32\n              jump\t// in\n            tag_41:\n              mload(0x40)\n              dup1\n              swap2\n              sub\n              swap1\n              return\n                /* \"Campain.sol\":1082:1242  function contribute() public payable{... */\n            tag_8:\n              tag_42\n              tag_43\n              jump\t// in\n            tag_42:\n              stop\n                /* \"Campain.sol\":1978:2287  function approveRequest(uint index) public{... */\n            tag_9:\n              callvalue\n              dup1\n              iszero\n              tag_44\n              jumpi\n              0x00\n              dup1\n              revert\n            tag_44:\n              pop\n              tag_45\n              0x04\n              dup1\n              calldatasize\n              sub\n              dup2\n              add\n              swap1\n              tag_46\n              swap2\n              swap1\n              tag_14\n              jump\t// in\n            tag_46:\n              tag_47\n              jump\t// in\n            tag_45:\n              stop\n                /* \"Campain.sol\":2295:2602  function finalizeRequest(uint index) public restricted{... */\n            tag_15:\n                /* \"Campain.sol\":894:901  manager */\n              0x00\n              dup1\n              sload\n              swap1\n              0x0100\n              exp\n              swap1\n              div\n              0xffffffffffffffffffffffffffffffffffffffff\n              and\n                /* \"Campain.sol\":882:901  msg.sender==manager */\n              0xffffffffffffffffffffffffffffffffffffffff\n              and\n                /* \"Campain.sol\":882:892  msg.sender */\n              caller\n                /* \"Campain.sol\":882:901  msg.sender==manager */\n              0xffffffffffffffffffffffffffffffffffffffff\n              and\n              eq\n                /* \"Campain.sol\":874:929  require(msg.sender==manager,\"you are not the manager!\") */\n              tag_49\n              jumpi\n              mload(0x40)\n              0x08c379a000000000000000000000000000000000000000000000000000000000\n              dup2\n              mstore\n              0x04\n              add\n              tag_50\n              swap1\n              tag_51\n              jump\t// in\n            tag_50:\n              mload(0x40)\n              dup1\n              swap2\n              sub\n              swap1\n              revert\n            tag_49:\n                /* \"Campain.sol\":2360:2383  Request storage request */\n              0x00\n                /* \"Campain.sol\":2386:2394  requests */\n              0x05\n                /* \"Campain.sol\":2386:2401  requests[index] */\n              0x00\n                /* \"Campain.sol\":2395:2400  index */\n              dup4\n                /* \"Campain.sol\":2386:2401  requests[index] */\n              dup2\n              mstore\n              0x20\n              add\n              swap1\n              dup2\n              mstore\n              0x20\n              add\n              0x00\n              keccak256\n                /* \"Campain.sol\":2360:2401  Request storage request = requests[index] */\n              swap1\n              pop\n                /* \"Campain.sol\":2421:2428  request */\n              dup1\n                /* \"Campain.sol\":2421:2437  request.complete */\n              0x02\n              add\n              0x14\n              swap1\n              sload\n              swap1\n              0x0100\n              exp\n              swap1\n              div\n              0xff\n              and\n                /* \"Campain.sol\":2420:2437  !request.complete */\n              iszero\n                /* \"Campain.sol\":2412:2438  require(!request.complete) */\n              tag_53\n              jumpi\n              0x00\n              dup1\n              revert\n            tag_53:\n                /* \"Campain.sol\":2497:2498  2 */\n              0x02\n                /* \"Campain.sol\":2482:2496  approversCount */\n              dup1\n              sload\n                /* \"Campain.sol\":2482:2498  approversCount/2 */\n              tag_54\n              swap2\n              swap1\n              tag_55\n              jump\t// in\n            tag_54:\n                /* \"Campain.sol\":2457:2464  request */\n              dup2\n                /* \"Campain.sol\":2457:2478  request.approvalCount */\n              0x03\n              add\n              sload\n                /* \"Campain.sol\":2457:2498  request.approvalCount  > approversCount/2 */\n              gt\n                /* \"Campain.sol\":2449:2499  require(request.approvalCount  > approversCount/2) */\n              tag_56\n              jumpi\n              0x00\n              dup1\n              revert\n            tag_56:\n                /* \"Campain.sol\":2518:2525  request */\n              dup1\n                /* \"Campain.sol\":2518:2535  request.recipient */\n              0x02\n              add\n              0x00\n              swap1\n              sload\n              swap1\n              0x0100\n              exp\n              swap1\n              div\n              0xffffffffffffffffffffffffffffffffffffffff\n              and\n                /* \"Campain.sol\":2510:2545  payable(request.recipient).transfer */\n              0xffffffffffffffffffffffffffffffffffffffff\n              and\n                /* \"Campain.sol\":2510:2560  payable(request.recipient).transfer(request.value) */\n              0x08fc\n                /* \"Campain.sol\":2546:2553  request */\n              dup3\n                /* \"Campain.sol\":2546:2559  request.value */\n              0x01\n              add\n              sload\n                /* \"Campain.sol\":2510:2560  payable(request.recipient).transfer(request.value) */\n              swap1\n              dup2\n              iszero\n              mul\n              swap1\n              mload(0x40)\n              0x00\n              mload(0x40)\n              dup1\n              dup4\n              sub\n              dup2\n              dup6\n              dup9\n              dup9\n              call\n              swap4\n              pop\n              pop\n              pop\n              pop\n              iszero\n              dup1\n              iszero\n              tag_58\n              jumpi\n              returndatasize\n              0x00\n              dup1\n              returndatacopy\n              revert(0x00, returndatasize)\n            tag_58:\n              pop\n                /* \"Campain.sol\":2590:2594  true */\n              0x01\n                /* \"Campain.sol\":2571:2578  request */\n              dup2\n                /* \"Campain.sol\":2571:2587  request.complete */\n              0x02\n              add\n              0x14\n                /* \"Campain.sol\":2571:2594  request.complete = true */\n              0x0100\n              exp\n              dup2\n              sload\n              dup2\n              0xff\n              mul\n              not\n              and\n              swap1\n              dup4\n              iszero\n              iszero\n              mul\n              or\n              swap1\n              sstore\n              pop\n                /* \"Campain.sol\":2349:2602  {... */\n              pop\n                /* \"Campain.sol\":2295:2602  function finalizeRequest(uint index) public restricted{... */\n              pop\n              jump\t// out\n                /* \"Campain.sol\":715:756  mapping(address => bool) public approvers */\n            tag_20:\n              mstore(0x20, 0x03)\n              dup1\n              0x00\n              mstore\n              keccak256(0x00, 0x40)\n              0x00\n              swap2\n              pop\n              sload\n              swap1\n              0x0100\n              exp\n              swap1\n              div\n              0xff\n              and\n              dup2\n              jump\t// out\n                /* \"Campain.sol\":615:637  address public manager */\n            tag_25:\n              0x00\n              dup1\n              sload\n              swap1\n              0x0100\n              exp\n              swap1\n              div\n              0xffffffffffffffffffffffffffffffffffffffff\n              and\n              dup2\n              jump\t// out\n                /* \"Campain.sol\":682:708  uint public approversCount */\n            tag_30:\n              sload(0x02)\n              dup2\n              jump\t// out\n                /* \"Campain.sol\":1250:1970  function createRequest(string memory description,uint value,address recipient) public restricted{... */\n            tag_37:\n                /* \"Campain.sol\":894:901  manager */\n              0x00\n              dup1\n              sload\n              swap1\n              0x0100\n              exp\n              swap1\n              div\n              0xffffffffffffffffffffffffffffffffffffffff\n              and\n                /* \"Campain.sol\":882:901  msg.sender==manager */\n              0xffffffffffffffffffffffffffffffffffffffff\n              and\n                /* \"Campain.sol\":882:892  msg.sender */\n              caller\n                /* \"Campain.sol\":882:901  msg.sender==manager */\n              0xffffffffffffffffffffffffffffffffffffffff\n              and\n              eq\n                /* \"Campain.sol\":874:929  require(msg.sender==manager,\"you are not the manager!\") */\n              tag_60\n              jumpi\n              mload(0x40)\n              0x08c379a000000000000000000000000000000000000000000000000000000000\n              dup2\n              mstore\n              0x04\n              add\n              tag_61\n              swap1\n              tag_51\n              jump\t// in\n            tag_61:\n              mload(0x40)\n              dup1\n              swap2\n              sub\n              swap1\n              revert\n            tag_60:\n                /* \"Campain.sol\":1685:1694  approvers */\n              0x03\n                /* \"Campain.sol\":1685:1706  approvers[msg.sender] */\n              0x00\n                /* \"Campain.sol\":1695:1705  msg.sender */\n              caller\n                /* \"Campain.sol\":1685:1706  approvers[msg.sender] */\n              0xffffffffffffffffffffffffffffffffffffffff\n              and\n              0xffffffffffffffffffffffffffffffffffffffff\n              and\n              dup2\n              mstore\n              0x20\n              add\n              swap1\n              dup2\n              mstore\n              0x20\n              add\n              0x00\n              keccak256\n              0x00\n              swap1\n              sload\n              swap1\n              0x0100\n              exp\n              swap1\n              div\n              0xff\n              and\n                /* \"Campain.sol\":1677:1707  require(approvers[msg.sender]) */\n              tag_63\n              jumpi\n              0x00\n              dup1\n              revert\n            tag_63:\n                /* \"Campain.sol\":1722:1739  Request storage r */\n              0x00\n                /* \"Campain.sol\":1742:1750  requests */\n              0x05\n                /* \"Campain.sol\":1742:1765  requests[numRequests++] */\n              0x00\n                /* \"Campain.sol\":1751:1762  numRequests */\n              0x04\n              0x00\n                /* \"Campain.sol\":1751:1764  numRequests++ */\n              dup2\n              sload\n              dup1\n              swap3\n              swap2\n              swap1\n              tag_64\n              swap1\n              tag_65\n              jump\t// in\n            tag_64:\n              swap2\n              swap1\n              pop\n              sstore\n                /* \"Campain.sol\":1742:1765  requests[numRequests++] */\n              dup2\n              mstore\n              0x20\n              add\n              swap1\n              dup2\n              mstore\n              0x20\n              add\n              0x00\n              keccak256\n                /* \"Campain.sol\":1722:1765  Request storage r = requests[numRequests++] */\n              swap1\n              pop\n                /* \"Campain.sol\":1800:1811  description */\n              dup4\n                /* \"Campain.sol\":1784:1785  r */\n              dup2\n                /* \"Campain.sol\":1784:1797  r.description */\n              0x00\n              add\n                /* \"Campain.sol\":1784:1811  r.description = description */\n              swap1\n              dup2\n              tag_66\n              swap2\n              swap1\n              tag_67\n              jump\t// in\n            tag_66:\n              pop\n                /* \"Campain.sol\":1840:1845  value */\n              dup3\n                /* \"Campain.sol\":1830:1831  r */\n              dup2\n                /* \"Campain.sol\":1830:1837  r.value */\n              0x01\n              add\n                /* \"Campain.sol\":1830:1845  r.value = value */\n              dup2\n              swap1\n              sstore\n              pop\n                /* \"Campain.sol\":1878:1887  recipient */\n              dup2\n                /* \"Campain.sol\":1864:1865  r */\n              dup2\n                /* \"Campain.sol\":1864:1875  r.recipient */\n              0x02\n              add\n              0x00\n                /* \"Campain.sol\":1864:1887  r.recipient = recipient */\n              0x0100\n              exp\n              dup2\n              sload\n              dup2\n              0xffffffffffffffffffffffffffffffffffffffff\n              mul\n              not\n              and\n              swap1\n              dup4\n              0xffffffffffffffffffffffffffffffffffffffff\n              and\n              mul\n              or\n              swap1\n              sstore\n              pop\n                /* \"Campain.sol\":1919:1924  false */\n              0x00\n                /* \"Campain.sol\":1906:1907  r */\n              dup2\n                /* \"Campain.sol\":1906:1916  r.complete */\n              0x02\n              add\n              0x14\n                /* \"Campain.sol\":1906:1924  r.complete = false */\n              0x0100\n              exp\n              dup2\n              sload\n              dup2\n              0xff\n              mul\n              not\n              and\n              swap1\n              dup4\n              iszero\n              iszero\n              mul\n              or\n              swap1\n              sstore\n              pop\n                /* \"Campain.sol\":1961:1962  0 */\n              0x00\n                /* \"Campain.sol\":1943:1944  r */\n              dup2\n                /* \"Campain.sol\":1943:1958  r.approvalCount */\n              0x03\n              add\n                /* \"Campain.sol\":1943:1962  r.approvalCount = 0 */\n              dup2\n              swap1\n              sstore\n              pop\n                /* \"Campain.sol\":1346:1970  {... */\n              pop\n                /* \"Campain.sol\":1250:1970  function createRequest(string memory description,uint value,address recipient) public restricted{... */\n              pop\n              pop\n              pop\n              jump\t// out\n                /* \"Campain.sol\":644:675  uint public minimumContribution */\n            tag_40:\n              sload(0x01)\n              dup2\n              jump\t// out\n                /* \"Campain.sol\":1082:1242  function contribute() public payable{... */\n            tag_43:\n                /* \"Campain.sol\":1148:1167  minimumContribution */\n              sload(0x01)\n                /* \"Campain.sol\":1137:1146  msg.value */\n              callvalue\n                /* \"Campain.sol\":1137:1167  msg.value> minimumContribution */\n              gt\n                /* \"Campain.sol\":1129:1168  require(msg.value> minimumContribution) */\n              tag_69\n              jumpi\n              0x00\n              dup1\n              revert\n            tag_69:\n                /* \"Campain.sol\":1203:1207  true */\n              0x01\n                /* \"Campain.sol\":1179:1188  approvers */\n              0x03\n                /* \"Campain.sol\":1179:1200  approvers[msg.sender] */\n              0x00\n                /* \"Campain.sol\":1189:1199  msg.sender */\n              caller\n                /* \"Campain.sol\":1179:1200  approvers[msg.sender] */\n              0xffffffffffffffffffffffffffffffffffffffff\n              and\n              0xffffffffffffffffffffffffffffffffffffffff\n              and\n              dup2\n              mstore\n              0x20\n              add\n              swap1\n              dup2\n              mstore\n              0x20\n              add\n              0x00\n              keccak256\n              0x00\n                /* \"Campain.sol\":1179:1207  approvers[msg.sender] = true */\n              0x0100\n              exp\n              dup2\n              sload\n              dup2\n              0xff\n              mul\n              not\n              and\n              swap1\n              dup4\n              iszero\n              iszero\n              mul\n              or\n              swap1\n              sstore\n              pop\n                /* \"Campain.sol\":1218:1232  approversCount */\n              0x02\n              0x00\n                /* \"Campain.sol\":1218:1234  approversCount++ */\n              dup2\n              sload\n              dup1\n              swap3\n              swap2\n              swap1\n              tag_70\n              swap1\n              tag_65\n              jump\t// in\n            tag_70:\n              swap2\n              swap1\n              pop\n              sstore\n              pop\n                /* \"Campain.sol\":1082:1242  function contribute() public payable{... */\n              jump\t// out\n                /* \"Campain.sol\":1978:2287  function approveRequest(uint index) public{... */\n            tag_47:\n                /* \"Campain.sol\":2031:2054  Request storage request */\n              0x00\n                /* \"Campain.sol\":2057:2065  requests */\n              0x05\n                /* \"Campain.sol\":2057:2072  requests[index] */\n              0x00\n                /* \"Campain.sol\":2066:2071  index */\n              dup4\n                /* \"Campain.sol\":2057:2072  requests[index] */\n              dup2\n              mstore\n              0x20\n              add\n              swap1\n              dup2\n              mstore\n              0x20\n              add\n              0x00\n              keccak256\n                /* \"Campain.sol\":2031:2072  Request storage request = requests[index] */\n              swap1\n              pop\n                /* \"Campain.sol\":2091:2100  approvers */\n              0x03\n                /* \"Campain.sol\":2091:2112  approvers[msg.sender] */\n              0x00\n                /* \"Campain.sol\":2101:2111  msg.sender */\n              caller\n                /* \"Campain.sol\":2091:2112  approvers[msg.sender] */\n              0xffffffffffffffffffffffffffffffffffffffff\n              and\n              0xffffffffffffffffffffffffffffffffffffffff\n              and\n              dup2\n              mstore\n              0x20\n              add\n              swap1\n              dup2\n              mstore\n              0x20\n              add\n              0x00\n              keccak256\n              0x00\n              swap1\n              sload\n              swap1\n              0x0100\n              exp\n              swap1\n              div\n              0xff\n              and\n                /* \"Campain.sol\":2083:2113  require(approvers[msg.sender]) */\n              tag_72\n              jumpi\n              0x00\n              dup1\n              revert\n            tag_72:\n                /* \"Campain.sol\":2138:2149  numRequests */\n              sload(0x04)\n                /* \"Campain.sol\":2132:2137  index */\n              dup3\n                /* \"Campain.sol\":2132:2149  index<numRequests */\n              lt\n                /* \"Campain.sol\":2124:2150  require(index<numRequests) */\n              tag_73\n              jumpi\n              0x00\n              dup1\n              revert\n            tag_73:\n                /* \"Campain.sol\":2170:2177  request */\n              dup1\n                /* \"Campain.sol\":2170:2187  request.approvals */\n              0x04\n              add\n                /* \"Campain.sol\":2170:2199  request.approvals[msg.sender] */\n              0x00\n                /* \"Campain.sol\":2188:2198  msg.sender */\n              caller\n                /* \"Campain.sol\":2170:2199  request.approvals[msg.sender] */\n              0xffffffffffffffffffffffffffffffffffffffff\n              and\n              0xffffffffffffffffffffffffffffffffffffffff\n              and\n              dup2\n              mstore\n              0x20\n              add\n              swap1\n              dup2\n              mstore\n              0x20\n              add\n              0x00\n              keccak256\n              0x00\n              swap1\n              sload\n              swap1\n              0x0100\n              exp\n              swap1\n              div\n              0xff\n              and\n                /* \"Campain.sol\":2169:2199  !request.approvals[msg.sender] */\n              iszero\n                /* \"Campain.sol\":2161:2200  require(!request.approvals[msg.sender]) */\n              tag_74\n              jumpi\n              0x00\n              dup1\n              revert\n            tag_74:\n                /* \"Campain.sol\":2211:2218  request */\n              dup1\n                /* \"Campain.sol\":2211:2232  request.approvalCount */\n              0x03\n              add\n              0x00\n                /* \"Campain.sol\":2211:2234  request.approvalCount++ */\n              dup2\n              sload\n              dup1\n              swap3\n              swap2\n              swap1\n              tag_75\n              swap1\n              tag_65\n              jump\t// in\n            tag_75:\n              swap2\n              swap1\n              pop\n              sstore\n              pop\n                /* \"Campain.sol\":2275:2279  true */\n              0x01\n                /* \"Campain.sol\":2245:2252  request */\n              dup2\n                /* \"Campain.sol\":2245:2262  request.approvals */\n              0x04\n              add\n                /* \"Campain.sol\":2245:2274  request.approvals[msg.sender] */\n              0x00\n                /* \"Campain.sol\":2263:2273  msg.sender */\n              caller\n                /* \"Campain.sol\":2245:2274  request.approvals[msg.sender] */\n              0xffffffffffffffffffffffffffffffffffffffff\n              and\n              0xffffffffffffffffffffffffffffffffffffffff\n              and\n              dup2\n              mstore\n              0x20\n              add\n              swap1\n              dup2\n              mstore\n              0x20\n              add\n              0x00\n              keccak256\n              0x00\n                /* \"Campain.sol\":2245:2279  request.approvals[msg.sender]=true */\n              0x0100\n              exp\n              dup2\n              sload\n              dup2\n              0xff\n              mul\n              not\n              and\n              swap1\n              dup4\n              iszero\n              iszero\n              mul\n              or\n              swap1\n              sstore\n              pop\n                /* \"Campain.sol\":2020:2287  {... */\n              pop\n                /* \"Campain.sol\":1978:2287  function approveRequest(uint index) public{... */\n              pop\n              jump\t// out\n                /* \"#utility.yul\":7:82   */\n            tag_76:\n                /* \"#utility.yul\":40:46   */\n              0x00\n                /* \"#utility.yul\":73:75   */\n              0x40\n                /* \"#utility.yul\":67:76   */\n              mload\n                /* \"#utility.yul\":57:76   */\n              swap1\n              pop\n                /* \"#utility.yul\":7:82   */\n              swap1\n              jump\t// out\n                /* \"#utility.yul\":88:205   */\n            tag_77:\n                /* \"#utility.yul\":197:198   */\n              0x00\n                /* \"#utility.yul\":194:195   */\n              dup1\n                /* \"#utility.yul\":187:199   */\n              revert\n                /* \"#utility.yul\":211:328   */\n            tag_78:\n                /* \"#utility.yul\":320:321   */\n              0x00\n                /* \"#utility.yul\":317:318   */\n              dup1\n                /* \"#utility.yul\":310:322   */\n              revert\n                /* \"#utility.yul\":334:411   */\n            tag_79:\n                /* \"#utility.yul\":371:378   */\n              0x00\n                /* \"#utility.yul\":400:405   */\n              dup2\n                /* \"#utility.yul\":389:405   */\n              swap1\n              pop\n                /* \"#utility.yul\":334:411   */\n              swap2\n              swap1\n              pop\n              jump\t// out\n                /* \"#utility.yul\":417:539   */\n            tag_80:\n                /* \"#utility.yul\":490:514   */\n              tag_129\n                /* \"#utility.yul\":508:513   */\n              dup2\n                /* \"#utility.yul\":490:514   */\n              tag_79\n              jump\t// in\n            tag_129:\n                /* \"#utility.yul\":483:488   */\n              dup2\n                /* \"#utility.yul\":480:515   */\n              eq\n                /* \"#utility.yul\":470:533   */\n              tag_130\n              jumpi\n                /* \"#utility.yul\":529:530   */\n              0x00\n                /* \"#utility.yul\":526:527   */\n              dup1\n                /* \"#utility.yul\":519:531   */\n              revert\n                /* \"#utility.yul\":470:533   */\n            tag_130:\n                /* \"#utility.yul\":417:539   */\n              pop\n              jump\t// out\n                /* \"#utility.yul\":545:684   */\n            tag_81:\n                /* \"#utility.yul\":591:596   */\n              0x00\n                /* \"#utility.yul\":629:635   */\n              dup2\n                /* \"#utility.yul\":616:636   */\n              calldataload\n                /* \"#utility.yul\":607:636   */\n              swap1\n              pop\n                /* \"#utility.yul\":645:678   */\n              tag_132\n                /* \"#utility.yul\":672:677   */\n              dup2\n                /* \"#utility.yul\":645:678   */\n              tag_80\n              jump\t// in\n            tag_132:\n                /* \"#utility.yul\":545:684   */\n              swap3\n              swap2\n              pop\n              pop\n              jump\t// out\n                /* \"#utility.yul\":690:1019   */\n            tag_14:\n                /* \"#utility.yul\":749:755   */\n              0x00\n                /* \"#utility.yul\":798:800   */\n              0x20\n                /* \"#utility.yul\":786:795   */\n              dup3\n                /* \"#utility.yul\":777:784   */\n              dup5\n                /* \"#utility.yul\":773:796   */\n              sub\n                /* \"#utility.yul\":769:801   */\n              slt\n                /* \"#utility.yul\":766:885   */\n              iszero\n              tag_134\n              jumpi\n                /* \"#utility.yul\":804:883   */\n              tag_135\n              tag_77\n              jump\t// in\n            tag_135:\n                /* \"#utility.yul\":766:885   */\n            tag_134:\n                /* \"#utility.yul\":924:925   */\n              0x00\n                /* \"#utility.yul\":949:1002   */\n              tag_136\n                /* \"#utility.yul\":994:1001   */\n              dup5\n                /* \"#utility.yul\":985:991   */\n              dup3\n                /* \"#utility.yul\":974:983   */\n              dup6\n                /* \"#utility.yul\":970:992   */\n              add\n                /* \"#utility.yul\":949:1002   */\n              tag_81\n              jump\t// in\n            tag_136:\n                /* \"#utility.yul\":939:1002   */\n              swap2\n              pop\n                /* \"#utility.yul\":895:1012   */\n              pop\n                /* \"#utility.yul\":690:1019   */\n              swap3\n              swap2\n              pop\n              pop\n              jump\t// out\n                /* \"#utility.yul\":1025:1151   */\n            tag_82:\n                /* \"#utility.yul\":1062:1069   */\n              0x00\n                /* \"#utility.yul\":1102:1144   */\n              0xffffffffffffffffffffffffffffffffffffffff\n                /* \"#utility.yul\":1095:1100   */\n              dup3\n                /* \"#utility.yul\":1091:1145   */\n              and\n                /* \"#utility.yul\":1080:1145   */\n              swap1\n              pop\n                /* \"#utility.yul\":1025:1151   */\n              swap2\n              swap1\n              pop\n              jump\t// out\n                /* \"#utility.yul\":1157:1253   */\n            tag_83:\n                /* \"#utility.yul\":1194:1201   */\n              0x00\n                /* \"#utility.yul\":1223:1247   */\n              tag_139\n                /* \"#utility.yul\":1241:1246   */\n              dup3\n                /* \"#utility.yul\":1223:1247   */\n              tag_82\n              jump\t// in\n            tag_139:\n                /* \"#utility.yul\":1212:1247   */\n              swap1\n              pop\n                /* \"#utility.yul\":1157:1253   */\n              swap2\n              swap1\n              pop\n              jump\t// out\n                /* \"#utility.yul\":1259:1381   */\n            tag_84:\n                /* \"#utility.yul\":1332:1356   */\n              tag_141\n                /* \"#utility.yul\":1350:1355   */\n              dup2\n                /* \"#utility.yul\":1332:1356   */\n              tag_83\n              jump\t// in\n            tag_141:\n                /* \"#utility.yul\":1325:1330   */\n              dup2\n                /* \"#utility.yul\":1322:1357   */\n              eq\n                /* \"#utility.yul\":1312:1375   */\n              tag_142\n              jumpi\n                /* \"#utility.yul\":1371:1372   */\n              0x00\n                /* \"#utility.yul\":1368:1369   */\n              dup1\n                /* \"#utility.yul\":1361:1373   */\n              revert\n                /* \"#utility.yul\":1312:1375   */\n            tag_142:\n                /* \"#utility.yul\":1259:1381   */\n              pop\n              jump\t// out\n                /* \"#utility.yul\":1387:1526   */\n            tag_85:\n                /* \"#utility.yul\":1433:1438   */\n              0x00\n                /* \"#utility.yul\":1471:1477   */\n              dup2\n                /* \"#utility.yul\":1458:1478   */\n              calldataload\n                /* \"#utility.yul\":1449:1478   */\n              swap1\n              pop\n                /* \"#utility.yul\":1487:1520   */\n              tag_144\n                /* \"#utility.yul\":1514:1519   */\n              dup2\n                /* \"#utility.yul\":1487:1520   */\n              tag_84\n              jump\t// in\n            tag_144:\n                /* \"#utility.yul\":1387:1526   */\n              swap3\n              swap2\n              pop\n              pop\n              jump\t// out\n                /* \"#utility.yul\":1532:1861   */\n            tag_19:\n                /* \"#utility.yul\":1591:1597   */\n              0x00\n                /* \"#utility.yul\":1640:1642   */\n              0x20\n                /* \"#utility.yul\":1628:1637   */\n              dup3\n                /* \"#utility.yul\":1619:1626   */\n              dup5\n                /* \"#utility.yul\":1615:1638   */\n              sub\n                /* \"#utility.yul\":1611:1643   */\n              slt\n                /* \"#utility.yul\":1608:1727   */\n              iszero\n              tag_146\n              jumpi\n                /* \"#utility.yul\":1646:1725   */\n              tag_147\n              tag_77\n              jump\t// in\n            tag_147:\n                /* \"#utility.yul\":1608:1727   */\n            tag_146:\n                /* \"#utility.yul\":1766:1767   */\n              0x00\n                /* \"#utility.yul\":1791:1844   */\n              tag_148\n                /* \"#utility.yul\":1836:1843   */\n              dup5\n                /* \"#utility.yul\":1827:1833   */\n              dup3\n                /* \"#utility.yul\":1816:1825   */\n              dup6\n                /* \"#utility.yul\":1812:1834   */\n              add\n                /* \"#utility.yul\":1791:1844   */\n              tag_85\n              jump\t// in\n            tag_148:\n                /* \"#utility.yul\":1781:1844   */\n              swap2\n              pop\n                /* \"#utility.yul\":1737:1854   */\n              pop\n                /* \"#utility.yul\":1532:1861   */\n              swap3\n              swap2\n              pop\n              pop\n              jump\t// out\n                /* \"#utility.yul\":1867:1957   */\n            tag_86:\n                /* \"#utility.yul\":1901:1908   */\n              0x00\n                /* \"#utility.yul\":1944:1949   */\n              dup2\n                /* \"#utility.yul\":1937:1950   */\n              iszero\n                /* \"#utility.yul\":1930:1951   */\n              iszero\n                /* \"#utility.yul\":1919:1951   */\n              swap1\n              pop\n                /* \"#utility.yul\":1867:1957   */\n              swap2\n              swap1\n              pop\n              jump\t// out\n                /* \"#utility.yul\":1963:2072   */\n            tag_87:\n                /* \"#utility.yul\":2044:2065   */\n              tag_151\n                /* \"#utility.yul\":2059:2064   */\n              dup2\n                /* \"#utility.yul\":2044:2065   */\n              tag_86\n              jump\t// in\n            tag_151:\n                /* \"#utility.yul\":2039:2042   */\n              dup3\n                /* \"#utility.yul\":2032:2066   */\n              mstore\n                /* \"#utility.yul\":1963:2072   */\n              pop\n              pop\n              jump\t// out\n                /* \"#utility.yul\":2078:2288   */\n            tag_22:\n                /* \"#utility.yul\":2165:2169   */\n              0x00\n                /* \"#utility.yul\":2203:2205   */\n              0x20\n                /* \"#utility.yul\":2192:2201   */\n              dup3\n                /* \"#utility.yul\":2188:2206   */\n              add\n                /* \"#utility.yul\":2180:2206   */\n              swap1\n              pop\n                /* \"#utility.yul\":2216:2281   */\n              tag_153\n                /* \"#utility.yul\":2278:2279   */\n              0x00\n                /* \"#utility.yul\":2267:2276   */\n              dup4\n                /* \"#utility.yul\":2263:2280   */\n              add\n                /* \"#utility.yul\":2254:2260   */\n              dup5\n                /* \"#utility.yul\":2216:2281   */\n              tag_87\n              jump\t// in\n            tag_153:\n                /* \"#utility.yul\":2078:2288   */\n              swap3\n              swap2\n              pop\n              pop\n              jump\t// out\n                /* \"#utility.yul\":2294:2412   */\n            tag_88:\n                /* \"#utility.yul\":2381:2405   */\n              tag_155\n                /* \"#utility.yul\":2399:2404   */\n              dup2\n                /* \"#utility.yul\":2381:2405   */\n              tag_83\n              jump\t// in\n            tag_155:\n                /* \"#utility.yul\":2376:2379   */\n              dup3\n                /* \"#utility.yul\":2369:2406   */\n              mstore\n                /* \"#utility.yul\":2294:2412   */\n              pop\n              pop\n              jump\t// out\n                /* \"#utility.yul\":2418:2640   */\n            tag_27:\n                /* \"#utility.yul\":2511:2515   */\n              0x00\n                /* \"#utility.yul\":2549:2551   */\n              0x20\n                /* \"#utility.yul\":2538:2547   */\n              dup3\n                /* \"#utility.yul\":2534:2552   */\n              add\n                /* \"#utility.yul\":2526:2552   */\n              swap1\n              pop\n                /* \"#utility.yul\":2562:2633   */\n              tag_157\n                /* \"#utility.yul\":2630:2631   */\n              0x00\n                /* \"#utility.yul\":2619:2628   */\n              dup4\n                /* \"#utility.yul\":2615:2632   */\n              add\n                /* \"#utility.yul\":2606:2612   */\n              dup5\n                /* \"#utility.yul\":2562:2633   */\n              tag_88\n              jump\t// in\n            tag_157:\n                /* \"#utility.yul\":2418:2640   */\n              swap3\n              swap2\n              pop\n              pop\n              jump\t// out\n                /* \"#utility.yul\":2646:2764   */\n            tag_89:\n                /* \"#utility.yul\":2733:2757   */\n              tag_159\n                /* \"#utility.yul\":2751:2756   */\n              dup2\n                /* \"#utility.yul\":2733:2757   */\n              tag_79\n              jump\t// in\n            tag_159:\n                /* \"#utility.yul\":2728:2731   */\n              dup3\n                /* \"#utility.yul\":2721:2758   */\n              mstore\n                /* \"#utility.yul\":2646:2764   */\n              pop\n              pop\n              jump\t// out\n                /* \"#utility.yul\":2770:2992   */\n            tag_32:\n                /* \"#utility.yul\":2863:2867   */\n              0x00\n                /* \"#utility.yul\":2901:2903   */\n              0x20\n                /* \"#utility.yul\":2890:2899   */\n              dup3\n                /* \"#utility.yul\":2886:2904   */\n              add\n                /* \"#utility.yul\":2878:2904   */\n              swap1\n              pop\n                /* \"#utility.yul\":2914:2985   */\n              tag_161\n                /* \"#utility.yul\":2982:2983   */\n              0x00\n                /* \"#utility.yul\":2971:2980   */\n              dup4\n                /* \"#utility.yul\":2967:2984   */\n              add\n                /* \"#utility.yul\":2958:2964   */\n              dup5\n                /* \"#utility.yul\":2914:2985   */\n              tag_89\n              jump\t// in\n            tag_161:\n                /* \"#utility.yul\":2770:2992   */\n              swap3\n              swap2\n              pop\n              pop\n              jump\t// out\n                /* \"#utility.yul\":2998:3115   */\n            tag_90:\n                /* \"#utility.yul\":3107:3108   */\n              0x00\n                /* \"#utility.yul\":3104:3105   */\n              dup1\n                /* \"#utility.yul\":3097:3109   */\n              revert\n                /* \"#utility.yul\":3121:3238   */\n            tag_91:\n                /* \"#utility.yul\":3230:3231   */\n              0x00\n                /* \"#utility.yul\":3227:3228   */\n              dup1\n                /* \"#utility.yul\":3220:3232   */\n              revert\n                /* \"#utility.yul\":3244:3346   */\n            tag_92:\n                /* \"#utility.yul\":3285:3291   */\n              0x00\n                /* \"#utility.yul\":3336:3338   */\n              0x1f\n                /* \"#utility.yul\":3332:3339   */\n              not\n                /* \"#utility.yul\":3327:3329   */\n              0x1f\n                /* \"#utility.yul\":3320:3325   */\n              dup4\n                /* \"#utility.yul\":3316:3330   */\n              add\n                /* \"#utility.yul\":3312:3340   */\n              and\n                /* \"#utility.yul\":3302:3340   */\n              swap1\n              pop\n                /* \"#utility.yul\":3244:3346   */\n              swap2\n              swap1\n              pop\n              jump\t// out\n                /* \"#utility.yul\":3352:3532   */\n            tag_93:\n                /* \"#utility.yul\":3400:3477   */\n              0x4e487b7100000000000000000000000000000000000000000000000000000000\n                /* \"#utility.yul\":3397:3398   */\n              0x00\n                /* \"#utility.yul\":3390:3478   */\n              mstore\n                /* \"#utility.yul\":3497:3501   */\n              0x41\n                /* \"#utility.yul\":3494:3495   */\n              0x04\n                /* \"#utility.yul\":3487:3502   */\n              mstore\n                /* \"#utility.yul\":3521:3525   */\n              0x24\n                /* \"#utility.yul\":3518:3519   */\n              0x00\n                /* \"#utility.yul\":3511:3526   */\n              revert\n                /* \"#utility.yul\":3538:3819   */\n            tag_94:\n                /* \"#utility.yul\":3621:3648   */\n              tag_167\n                /* \"#utility.yul\":3643:3647   */\n              dup3\n                /* \"#utility.yul\":3621:3648   */\n              tag_92\n              jump\t// in\n            tag_167:\n                /* \"#utility.yul\":3613:3619   */\n              dup2\n                /* \"#utility.yul\":3609:3649   */\n              add\n                /* \"#utility.yul\":3751:3757   */\n              dup2\n                /* \"#utility.yul\":3739:3749   */\n              dup2\n                /* \"#utility.yul\":3736:3758   */\n              lt\n                /* \"#utility.yul\":3715:3733   */\n              0xffffffffffffffff\n                /* \"#utility.yul\":3703:3713   */\n              dup3\n                /* \"#utility.yul\":3700:3734   */\n              gt\n                /* \"#utility.yul\":3697:3759   */\n              or\n                /* \"#utility.yul\":3694:3782   */\n              iszero\n              tag_168\n              jumpi\n                /* \"#utility.yul\":3762:3780   */\n              tag_169\n              tag_93\n              jump\t// in\n            tag_169:\n                /* \"#utility.yul\":3694:3782   */\n            tag_168:\n                /* \"#utility.yul\":3802:3812   */\n              dup1\n                /* \"#utility.yul\":3798:3800   */\n              0x40\n                /* \"#utility.yul\":3791:3813   */\n              mstore\n                /* \"#utility.yul\":3581:3819   */\n              pop\n                /* \"#utility.yul\":3538:3819   */\n              pop\n              pop\n              jump\t// out\n                /* \"#utility.yul\":3825:3954   */\n            tag_95:\n                /* \"#utility.yul\":3859:3865   */\n              0x00\n                /* \"#utility.yul\":3886:3906   */\n              tag_171\n              tag_76\n              jump\t// in\n            tag_171:\n                /* \"#utility.yul\":3876:3906   */\n              swap1\n              pop\n                /* \"#utility.yul\":3915:3948   */\n              tag_172\n                /* \"#utility.yul\":3943:3947   */\n              dup3\n                /* \"#utility.yul\":3935:3941   */\n              dup3\n                /* \"#utility.yul\":3915:3948   */\n              tag_94\n              jump\t// in\n            tag_172:\n                /* \"#utility.yul\":3825:3954   */\n              swap2\n              swap1\n              pop\n              jump\t// out\n                /* \"#utility.yul\":3960:4268   */\n            tag_96:\n                /* \"#utility.yul\":4022:4026   */\n              0x00\n                /* \"#utility.yul\":4112:4130   */\n              0xffffffffffffffff\n                /* \"#utility.yul\":4104:4110   */\n              dup3\n                /* \"#utility.yul\":4101:4131   */\n              gt\n                /* \"#utility.yul\":4098:4154   */\n              iszero\n              tag_174\n              jumpi\n                /* \"#utility.yul\":4134:4152   */\n              tag_175\n              tag_93\n              jump\t// in\n            tag_175:\n                /* \"#utility.yul\":4098:4154   */\n            tag_174:\n                /* \"#utility.yul\":4172:4201   */\n              tag_176\n                /* \"#utility.yul\":4194:4200   */\n              dup3\n                /* \"#utility.yul\":4172:4201   */\n              tag_92\n              jump\t// in\n            tag_176:\n                /* \"#utility.yul\":4164:4201   */\n              swap1\n              pop\n                /* \"#utility.yul\":4256:4260   */\n              0x20\n                /* \"#utility.yul\":4250:4254   */\n              dup2\n                /* \"#utility.yul\":4246:4261   */\n              add\n                /* \"#utility.yul\":4238:4261   */\n              swap1\n              pop\n                /* \"#utility.yul\":3960:4268   */\n              swap2\n              swap1\n              pop\n              jump\t// out\n                /* \"#utility.yul\":4274:4420   */\n            tag_97:\n                /* \"#utility.yul\":4371:4377   */\n              dup3\n                /* \"#utility.yul\":4366:4369   */\n              dup2\n                /* \"#utility.yul\":4361:4364   */\n              dup4\n                /* \"#utility.yul\":4348:4378   */\n              calldatacopy\n                /* \"#utility.yul\":4412:4413   */\n              0x00\n                /* \"#utility.yul\":4403:4409   */\n              dup4\n                /* \"#utility.yul\":4398:4401   */\n              dup4\n                /* \"#utility.yul\":4394:4410   */\n              add\n                /* \"#utility.yul\":4387:4414   */\n              mstore\n                /* \"#utility.yul\":4274:4420   */\n              pop\n              pop\n              pop\n              jump\t// out\n                /* \"#utility.yul\":4426:4851   */\n            tag_98:\n                /* \"#utility.yul\":4504:4509   */\n              0x00\n                /* \"#utility.yul\":4529:4595   */\n              tag_179\n                /* \"#utility.yul\":4545:4594   */\n              tag_180\n                /* \"#utility.yul\":4587:4593   */\n              dup5\n                /* \"#utility.yul\":4545:4594   */\n              tag_96\n              jump\t// in\n            tag_180:\n                /* \"#utility.yul\":4529:4595   */\n              tag_95\n              jump\t// in\n            tag_179:\n                /* \"#utility.yul\":4520:4595   */\n              swap1\n              pop\n                /* \"#utility.yul\":4618:4624   */\n              dup3\n                /* \"#utility.yul\":4611:4616   */\n              dup2\n                /* \"#utility.yul\":4604:4625   */\n              mstore\n                /* \"#utility.yul\":4656:4660   */\n              0x20\n                /* \"#utility.yul\":4649:4654   */\n              dup2\n                /* \"#utility.yul\":4645:4661   */\n              add\n                /* \"#utility.yul\":4694:4697   */\n              dup5\n                /* \"#utility.yul\":4685:4691   */\n              dup5\n                /* \"#utility.yul\":4680:4683   */\n              dup5\n                /* \"#utility.yul\":4676:4692   */\n              add\n                /* \"#utility.yul\":4673:4698   */\n              gt\n                /* \"#utility.yul\":4670:4782   */\n              iszero\n              tag_181\n              jumpi\n                /* \"#utility.yul\":4701:4780   */\n              tag_182\n              tag_91\n              jump\t// in\n            tag_182:\n                /* \"#utility.yul\":4670:4782   */\n            tag_181:\n                /* \"#utility.yul\":4791:4845   */\n              tag_183\n                /* \"#utility.yul\":4838:4844   */\n              dup5\n                /* \"#utility.yul\":4833:4836   */\n              dup3\n                /* \"#utility.yul\":4828:4831   */\n              dup6\n                /* \"#utility.yul\":4791:4845   */\n              tag_97\n              jump\t// in\n            tag_183:\n                /* \"#utility.yul\":4510:4851   */\n              pop\n                /* \"#utility.yul\":4426:4851   */\n              swap4\n              swap3\n              pop\n              pop\n              pop\n              jump\t// out\n                /* \"#utility.yul\":4871:5211   */\n            tag_99:\n                /* \"#utility.yul\":4927:4932   */\n              0x00\n                /* \"#utility.yul\":4976:4979   */\n              dup3\n                /* \"#utility.yul\":4969:4973   */\n              0x1f\n                /* \"#utility.yul\":4961:4967   */\n              dup4\n                /* \"#utility.yul\":4957:4974   */\n              add\n                /* \"#utility.yul\":4953:4980   */\n              slt\n                /* \"#utility.yul\":4943:5065   */\n              tag_185\n              jumpi\n                /* \"#utility.yul\":4984:5063   */\n              tag_186\n              tag_90\n              jump\t// in\n            tag_186:\n                /* \"#utility.yul\":4943:5065   */\n            tag_185:\n                /* \"#utility.yul\":5101:5107   */\n              dup2\n                /* \"#utility.yul\":5088:5108   */\n              calldataload\n                /* \"#utility.yul\":5126:5205   */\n              tag_187\n                /* \"#utility.yul\":5201:5204   */\n              dup5\n                /* \"#utility.yul\":5193:5199   */\n              dup3\n                /* \"#utility.yul\":5186:5190   */\n              0x20\n                /* \"#utility.yul\":5178:5184   */\n              dup7\n                /* \"#utility.yul\":5174:5191   */\n              add\n                /* \"#utility.yul\":5126:5205   */\n              tag_98\n              jump\t// in\n            tag_187:\n                /* \"#utility.yul\":5117:5205   */\n              swap2\n              pop\n                /* \"#utility.yul\":4933:5211   */\n              pop\n                /* \"#utility.yul\":4871:5211   */\n              swap3\n              swap2\n              pop\n              pop\n              jump\t// out\n                /* \"#utility.yul\":5217:6016   */\n            tag_36:\n                /* \"#utility.yul\":5304:5310   */\n              0x00\n                /* \"#utility.yul\":5312:5318   */\n              dup1\n                /* \"#utility.yul\":5320:5326   */\n              0x00\n                /* \"#utility.yul\":5369:5371   */\n              0x60\n                /* \"#utility.yul\":5357:5366   */\n              dup5\n                /* \"#utility.yul\":5348:5355   */\n              dup7\n                /* \"#utility.yul\":5344:5367   */\n              sub\n                /* \"#utility.yul\":5340:5372   */\n              slt\n                /* \"#utility.yul\":5337:5456   */\n              iszero\n              tag_189\n              jumpi\n                /* \"#utility.yul\":5375:5454   */\n              tag_190\n              tag_77\n              jump\t// in\n            tag_190:\n                /* \"#utility.yul\":5337:5456   */\n            tag_189:\n                /* \"#utility.yul\":5523:5524   */\n              0x00\n                /* \"#utility.yul\":5512:5521   */\n              dup5\n                /* \"#utility.yul\":5508:5525   */\n              add\n                /* \"#utility.yul\":5495:5526   */\n              calldataload\n                /* \"#utility.yul\":5553:5571   */\n              0xffffffffffffffff\n                /* \"#utility.yul\":5545:5551   */\n              dup2\n                /* \"#utility.yul\":5542:5572   */\n              gt\n                /* \"#utility.yul\":5539:5656   */\n              iszero\n              tag_191\n              jumpi\n                /* \"#utility.yul\":5575:5654   */\n              tag_192\n              tag_78\n              jump\t// in\n            tag_192:\n                /* \"#utility.yul\":5539:5656   */\n            tag_191:\n                /* \"#utility.yul\":5680:5743   */\n              tag_193\n                /* \"#utility.yul\":5735:5742   */\n              dup7\n                /* \"#utility.yul\":5726:5732   */\n              dup3\n                /* \"#utility.yul\":5715:5724   */\n              dup8\n                /* \"#utility.yul\":5711:5733   */\n              add\n                /* \"#utility.yul\":5680:5743   */\n              tag_99\n              jump\t// in\n            tag_193:\n                /* \"#utility.yul\":5670:5743   */\n              swap4\n              pop\n                /* \"#utility.yul\":5466:5753   */\n              pop\n                /* \"#utility.yul\":5792:5794   */\n              0x20\n                /* \"#utility.yul\":5818:5871   */\n              tag_194\n                /* \"#utility.yul\":5863:5870   */\n              dup7\n                /* \"#utility.yul\":5854:5860   */\n              dup3\n                /* \"#utility.yul\":5843:5852   */\n              dup8\n                /* \"#utility.yul\":5839:5861   */\n              add\n                /* \"#utility.yul\":5818:5871   */\n              tag_81\n              jump\t// in\n            tag_194:\n                /* \"#utility.yul\":5808:5871   */\n              swap3\n              pop\n                /* \"#utility.yul\":5763:5881   */\n              pop\n                /* \"#utility.yul\":5920:5922   */\n              0x40\n                /* \"#utility.yul\":5946:5999   */\n              tag_195\n                /* \"#utility.yul\":5991:5998   */\n              dup7\n                /* \"#utility.yul\":5982:5988   */\n              dup3\n                /* \"#utility.yul\":5971:5980   */\n              dup8\n                /* \"#utility.yul\":5967:5989   */\n              add\n                /* \"#utility.yul\":5946:5999   */\n              tag_85\n              jump\t// in\n            tag_195:\n                /* \"#utility.yul\":5936:5999   */\n              swap2\n              pop\n                /* \"#utility.yul\":5891:6009   */\n              pop\n                /* \"#utility.yul\":5217:6016   */\n              swap3\n              pop\n              swap3\n              pop\n              swap3\n              jump\t// out\n                /* \"#utility.yul\":6022:6191   */\n            tag_100:\n                /* \"#utility.yul\":6106:6117   */\n              0x00\n                /* \"#utility.yul\":6140:6146   */\n              dup3\n                /* \"#utility.yul\":6135:6138   */\n              dup3\n                /* \"#utility.yul\":6128:6147   */\n              mstore\n                /* \"#utility.yul\":6180:6184   */\n              0x20\n                /* \"#utility.yul\":6175:6178   */\n              dup3\n                /* \"#utility.yul\":6171:6185   */\n              add\n                /* \"#utility.yul\":6156:6185   */\n              swap1\n              pop\n                /* \"#utility.yul\":6022:6191   */\n              swap3\n              swap2\n              pop\n              pop\n              jump\t// out\n                /* \"#utility.yul\":6197:6371   */\n            tag_101:\n                /* \"#utility.yul\":6337:6363   */\n              0x796f7520617265206e6f7420746865206d616e61676572210000000000000000\n                /* \"#utility.yul\":6333:6334   */\n              0x00\n                /* \"#utility.yul\":6325:6331   */\n              dup3\n                /* \"#utility.yul\":6321:6335   */\n              add\n                /* \"#utility.yul\":6314:6364   */\n              mstore\n                /* \"#utility.yul\":6197:6371   */\n              pop\n              jump\t// out\n                /* \"#utility.yul\":6377:6743   */\n            tag_102:\n                /* \"#utility.yul\":6519:6522   */\n              0x00\n                /* \"#utility.yul\":6540:6607   */\n              tag_199\n                /* \"#utility.yul\":6604:6606   */\n              0x18\n                /* \"#utility.yul\":6599:6602   */\n              dup4\n                /* \"#utility.yul\":6540:6607   */\n              tag_100\n              jump\t// in\n            tag_199:\n                /* \"#utility.yul\":6533:6607   */\n              swap2\n              pop\n                /* \"#utility.yul\":6616:6709   */\n              tag_200\n                /* \"#utility.yul\":6705:6708   */\n              dup3\n                /* \"#utility.yul\":6616:6709   */\n              tag_101\n              jump\t// in\n            tag_200:\n                /* \"#utility.yul\":6734:6736   */\n              0x20\n                /* \"#utility.yul\":6729:6732   */\n              dup3\n                /* \"#utility.yul\":6725:6737   */\n              add\n                /* \"#utility.yul\":6718:6737   */\n              swap1\n              pop\n                /* \"#utility.yul\":6377:6743   */\n              swap2\n              swap1\n              pop\n              jump\t// out\n                /* \"#utility.yul\":6749:7168   */\n            tag_51:\n                /* \"#utility.yul\":6915:6919   */\n              0x00\n                /* \"#utility.yul\":6953:6955   */\n              0x20\n                /* \"#utility.yul\":6942:6951   */\n              dup3\n                /* \"#utility.yul\":6938:6956   */\n              add\n                /* \"#utility.yul\":6930:6956   */\n              swap1\n              pop\n                /* \"#utility.yul\":7002:7011   */\n              dup2\n                /* \"#utility.yul\":6996:7000   */\n              dup2\n                /* \"#utility.yul\":6992:7012   */\n              sub\n                /* \"#utility.yul\":6988:6989   */\n              0x00\n                /* \"#utility.yul\":6977:6986   */\n              dup4\n                /* \"#utility.yul\":6973:6990   */\n              add\n                /* \"#utility.yul\":6966:7013   */\n              mstore\n                /* \"#utility.yul\":7030:7161   */\n              tag_202\n                /* \"#utility.yul\":7156:7160   */\n              dup2\n                /* \"#utility.yul\":7030:7161   */\n              tag_102\n              jump\t// in\n            tag_202:\n                /* \"#utility.yul\":7022:7161   */\n              swap1\n              pop\n                /* \"#utility.yul\":6749:7168   */\n              swap2\n              swap1\n              pop\n              jump\t// out\n                /* \"#utility.yul\":7174:7354   */\n            tag_103:\n                /* \"#utility.yul\":7222:7299   */\n              0x4e487b7100000000000000000000000000000000000000000000000000000000\n                /* \"#utility.yul\":7219:7220   */\n              0x00\n                /* \"#utility.yul\":7212:7300   */\n              mstore\n                /* \"#utility.yul\":7319:7323   */\n              0x12\n                /* \"#utility.yul\":7316:7317   */\n              0x04\n                /* \"#utility.yul\":7309:7324   */\n              mstore\n                /* \"#utility.yul\":7343:7347   */\n              0x24\n                /* \"#utility.yul\":7340:7341   */\n              0x00\n                /* \"#utility.yul\":7333:7348   */\n              revert\n                /* \"#utility.yul\":7360:7540   */\n            tag_104:\n                /* \"#utility.yul\":7408:7485   */\n              0x4e487b7100000000000000000000000000000000000000000000000000000000\n                /* \"#utility.yul\":7405:7406   */\n              0x00\n                /* \"#utility.yul\":7398:7486   */\n              mstore\n                /* \"#utility.yul\":7505:7509   */\n              0x11\n                /* \"#utility.yul\":7502:7503   */\n              0x04\n                /* \"#utility.yul\":7495:7510   */\n              mstore\n                /* \"#utility.yul\":7529:7533   */\n              0x24\n                /* \"#utility.yul\":7526:7527   */\n              0x00\n                /* \"#utility.yul\":7519:7534   */\n              revert\n                /* \"#utility.yul\":7546:7731   */\n            tag_55:\n                /* \"#utility.yul\":7586:7587   */\n              0x00\n                /* \"#utility.yul\":7603:7623   */\n              tag_206\n                /* \"#utility.yul\":7621:7622   */\n              dup3\n                /* \"#utility.yul\":7603:7623   */\n              tag_79\n              jump\t// in\n            tag_206:\n                /* \"#utility.yul\":7598:7623   */\n              swap2\n              pop\n                /* \"#utility.yul\":7637:7657   */\n              tag_207\n                /* \"#utility.yul\":7655:7656   */\n              dup4\n                /* \"#utility.yul\":7637:7657   */\n              tag_79\n              jump\t// in\n            tag_207:\n                /* \"#utility.yul\":7632:7657   */\n              swap3\n              pop\n                /* \"#utility.yul\":7676:7677   */\n              dup3\n                /* \"#utility.yul\":7666:7701   */\n              tag_208\n              jumpi\n                /* \"#utility.yul\":7681:7699   */\n              tag_209\n              tag_103\n              jump\t// in\n            tag_209:\n                /* \"#utility.yul\":7666:7701   */\n            tag_208:\n                /* \"#utility.yul\":7723:7724   */\n              dup3\n                /* \"#utility.yul\":7720:7721   */\n              dup3\n                /* \"#utility.yul\":7716:7725   */\n              div\n                /* \"#utility.yul\":7711:7725   */\n              swap1\n              pop\n                /* \"#utility.yul\":7546:7731   */\n              swap3\n              swap2\n              pop\n              pop\n              jump\t// out\n                /* \"#utility.yul\":7737:7970   */\n            tag_65:\n                /* \"#utility.yul\":7776:7779   */\n              0x00\n                /* \"#utility.yul\":7799:7823   */\n              tag_211\n                /* \"#utility.yul\":7817:7822   */\n              dup3\n                /* \"#utility.yul\":7799:7823   */\n              tag_79\n              jump\t// in\n            tag_211:\n                /* \"#utility.yul\":7790:7823   */\n              swap2\n              pop\n                /* \"#utility.yul\":7845:7911   */\n              0xffffffffffffffffffffffffffffffffffffffffffffffffffffffffffffffff\n                /* \"#utility.yul\":7838:7843   */\n              dup3\n                /* \"#utility.yul\":7835:7912   */\n              sub\n                /* \"#utility.yul\":7832:7935   */\n              tag_212\n              jumpi\n                /* \"#utility.yul\":7915:7933   */\n              tag_213\n              tag_104\n              jump\t// in\n            tag_213:\n                /* \"#utility.yul\":7832:7935   */\n            tag_212:\n                /* \"#utility.yul\":7962:7963   */\n              0x01\n                /* \"#utility.yul\":7955:7960   */\n              dup3\n                /* \"#utility.yul\":7951:7964   */\n              add\n                /* \"#utility.yul\":7944:7964   */\n              swap1\n              pop\n                /* \"#utility.yul\":7737:7970   */\n              swap2\n              swap1\n              pop\n              jump\t// out\n                /* \"#utility.yul\":7976:8075   */\n            tag_105:\n                /* \"#utility.yul\":8028:8034   */\n              0x00\n                /* \"#utility.yul\":8062:8067   */\n              dup2\n                /* \"#utility.yul\":8056:8068   */\n              mload\n                /* \"#utility.yul\":8046:8068   */\n              swap1\n              pop\n                /* \"#utility.yul\":7976:8075   */\n              swap2\n              swap1\n              pop\n              jump\t// out\n                /* \"#utility.yul\":8081:8261   */\n            tag_106:\n                /* \"#utility.yul\":8129:8206   */\n              0x4e487b7100000000000000000000000000000000000000000000000000000000\n                /* \"#utility.yul\":8126:8127   */\n              0x00\n                /* \"#utility.yul\":8119:8207   */\n              mstore\n                /* \"#utility.yul\":8226:8230   */\n              0x22\n                /* \"#utility.yul\":8223:8224   */\n              0x04\n                /* \"#utility.yul\":8216:8231   */\n              mstore\n                /* \"#utility.yul\":8250:8254   */\n              0x24\n                /* \"#utility.yul\":8247:8248   */\n              0x00\n                /* \"#utility.yul\":8240:8255   */\n              revert\n                /* \"#utility.yul\":8267:8587   */\n            tag_107:\n                /* \"#utility.yul\":8311:8317   */\n              0x00\n                /* \"#utility.yul\":8348:8349   */\n              0x02\n                /* \"#utility.yul\":8342:8346   */\n              dup3\n                /* \"#utility.yul\":8338:8350   */\n              div\n                /* \"#utility.yul\":8328:8350   */\n              swap1\n              pop\n                /* \"#utility.yul\":8395:8396   */\n              0x01\n                /* \"#utility.yul\":8389:8393   */\n              dup3\n                /* \"#utility.yul\":8385:8397   */\n              and\n                /* \"#utility.yul\":8416:8434   */\n              dup1\n                /* \"#utility.yul\":8406:8487   */\n              tag_217\n              jumpi\n                /* \"#utility.yul\":8472:8476   */\n              0x7f\n                /* \"#utility.yul\":8464:8470   */\n              dup3\n                /* \"#utility.yul\":8460:8477   */\n              and\n                /* \"#utility.yul\":8450:8477   */\n              swap2\n              pop\n                /* \"#utility.yul\":8406:8487   */\n            tag_217:\n                /* \"#utility.yul\":8534:8536   */\n              0x20\n                /* \"#utility.yul\":8526:8532   */\n              dup3\n                /* \"#utility.yul\":8523:8537   */\n              lt\n                /* \"#utility.yul\":8503:8521   */\n              dup2\n                /* \"#utility.yul\":8500:8538   */\n              sub\n                /* \"#utility.yul\":8497:8581   */\n              tag_218\n              jumpi\n                /* \"#utility.yul\":8553:8571   */\n              tag_219\n              tag_106\n              jump\t// in\n            tag_219:\n                /* \"#utility.yul\":8497:8581   */\n            tag_218:\n                /* \"#utility.yul\":8318:8587   */\n              pop\n                /* \"#utility.yul\":8267:8587   */\n              swap2\n              swap1\n              pop\n              jump\t// out\n                /* \"#utility.yul\":8593:8734   */\n            tag_108:\n                /* \"#utility.yul\":8642:8646   */\n              0x00\n                /* \"#utility.yul\":8665:8668   */\n              dup2\n                /* \"#utility.yul\":8657:8668   */\n              swap1\n              pop\n                /* \"#utility.yul\":8688:8691   */\n              dup2\n                /* \"#utility.yul\":8685:8686   */\n              0x00\n                /* \"#utility.yul\":8678:8692   */\n              mstore\n                /* \"#utility.yul\":8722:8726   */\n              0x20\n                /* \"#utility.yul\":8719:8720   */\n              0x00\n                /* \"#utility.yul\":8709:8727   */\n              keccak256\n                /* \"#utility.yul\":8701:8727   */\n              swap1\n              pop\n                /* \"#utility.yul\":8593:8734   */\n              swap2\n              swap1\n              pop\n              jump\t// out\n                /* \"#utility.yul\":8740:8833   */\n            tag_109:\n                /* \"#utility.yul\":8777:8783   */\n              0x00\n                /* \"#utility.yul\":8824:8826   */\n              0x20\n                /* \"#utility.yul\":8819:8821   */\n              0x1f\n                /* \"#utility.yul\":8812:8817   */\n              dup4\n                /* \"#utility.yul\":8808:8822   */\n              add\n                /* \"#utility.yul\":8804:8827   */\n              div\n                /* \"#utility.yul\":8794:8827   */\n              swap1\n              pop\n                /* \"#utility.yul\":8740:8833   */\n              swap2\n              swap1\n              pop\n              jump\t// out\n                /* \"#utility.yul\":8839:8946   */\n            tag_110:\n                /* \"#utility.yul\":8883:8891   */\n              0x00\n                /* \"#utility.yul\":8933:8938   */\n              dup3\n                /* \"#utility.yul\":8927:8931   */\n              dup3\n                /* \"#utility.yul\":8923:8939   */\n              shl\n                /* \"#utility.yul\":8902:8939   */\n              swap1\n              pop\n                /* \"#utility.yul\":8839:8946   */\n              swap3\n              swap2\n              pop\n              pop\n              jump\t// out\n                /* \"#utility.yul\":8952:9345   */\n            tag_111:\n                /* \"#utility.yul\":9021:9027   */\n              0x00\n                /* \"#utility.yul\":9071:9072   */\n              0x08\n                /* \"#utility.yul\":9059:9069   */\n              dup4\n                /* \"#utility.yul\":9055:9073   */\n              mul\n                /* \"#utility.yul\":9094:9191   */\n              tag_224\n                /* \"#utility.yul\":9124:9190   */\n              0xffffffffffffffffffffffffffffffffffffffffffffffffffffffffffffffff\n                /* \"#utility.yul\":9113:9122   */\n              dup3\n                /* \"#utility.yul\":9094:9191   */\n              tag_110\n              jump\t// in\n            tag_224:\n                /* \"#utility.yul\":9212:9251   */\n              tag_225\n                /* \"#utility.yul\":9242:9250   */\n              dup7\n                /* \"#utility.yul\":9231:9240   */\n              dup4\n                /* \"#utility.yul\":9212:9251   */\n              tag_110\n              jump\t// in\n            tag_225:\n                /* \"#utility.yul\":9200:9251   */\n              swap6\n              pop\n                /* \"#utility.yul\":9284:9288   */\n              dup1\n                /* \"#utility.yul\":9280:9289   */\n              not\n                /* \"#utility.yul\":9273:9278   */\n              dup5\n                /* \"#utility.yul\":9269:9290   */\n              and\n                /* \"#utility.yul\":9260:9290   */\n              swap4\n              pop\n                /* \"#utility.yul\":9333:9337   */\n              dup1\n                /* \"#utility.yul\":9323:9331   */\n              dup7\n                /* \"#utility.yul\":9319:9338   */\n              and\n                /* \"#utility.yul\":9312:9317   */\n              dup5\n                /* \"#utility.yul\":9309:9339   */\n              or\n                /* \"#utility.yul\":9299:9339   */\n              swap3\n              pop\n                /* \"#utility.yul\":9028:9345   */\n              pop\n              pop\n                /* \"#utility.yul\":8952:9345   */\n              swap4\n              swap3\n              pop\n              pop\n              pop\n              jump\t// out\n                /* \"#utility.yul\":9351:9411   */\n            tag_112:\n                /* \"#utility.yul\":9379:9382   */\n              0x00\n                /* \"#utility.yul\":9400:9405   */\n              dup2\n                /* \"#utility.yul\":9393:9405   */\n              swap1\n              pop\n                /* \"#utility.yul\":9351:9411   */\n              swap2\n              swap1\n              pop\n              jump\t// out\n                /* \"#utility.yul\":9417:9559   */\n            tag_113:\n                /* \"#utility.yul\":9467:9476   */\n              0x00\n                /* \"#utility.yul\":9500:9553   */\n              tag_228\n                /* \"#utility.yul\":9518:9552   */\n              tag_229\n                /* \"#utility.yul\":9527:9551   */\n              tag_230\n                /* \"#utility.yul\":9545:9550   */\n              dup5\n                /* \"#utility.yul\":9527:9551   */\n              tag_79\n              jump\t// in\n            tag_230:\n                /* \"#utility.yul\":9518:9552   */\n              tag_112\n              jump\t// in\n            tag_229:\n                /* \"#utility.yul\":9500:9553   */\n              tag_79\n              jump\t// in\n            tag_228:\n                /* \"#utility.yul\":9487:9553   */\n              swap1\n              pop\n                /* \"#utility.yul\":9417:9559   */\n              swap2\n              swap1\n              pop\n              jump\t// out\n                /* \"#utility.yul\":9565:9640   */\n            tag_114:\n                /* \"#utility.yul\":9608:9611   */\n              0x00\n                /* \"#utility.yul\":9629:9634   */\n              dup2\n                /* \"#utility.yul\":9622:9634   */\n              swap1\n              pop\n                /* \"#utility.yul\":9565:9640   */\n              swap2\n              swap1\n              pop\n              jump\t// out\n                /* \"#utility.yul\":9646:9915   */\n            tag_115:\n                /* \"#utility.yul\":9756:9795   */\n              tag_233\n                /* \"#utility.yul\":9787:9794   */\n              dup4\n                /* \"#utility.yul\":9756:9795   */\n              tag_113\n              jump\t// in\n            tag_233:\n                /* \"#utility.yul\":9817:9908   */\n              tag_234\n                /* \"#utility.yul\":9866:9907   */\n              tag_235\n                /* \"#utility.yul\":9890:9906   */\n              dup3\n                /* \"#utility.yul\":9866:9907   */\n              tag_114\n              jump\t// in\n            tag_235:\n                /* \"#utility.yul\":9858:9864   */\n              dup5\n                /* \"#utility.yul\":9851:9855   */\n              dup5\n                /* \"#utility.yul\":9845:9856   */\n              sload\n                /* \"#utility.yul\":9817:9908   */\n              tag_111\n              jump\t// in\n            tag_234:\n                /* \"#utility.yul\":9811:9815   */\n              dup3\n                /* \"#utility.yul\":9804:9909   */\n              sstore\n                /* \"#utility.yul\":9722:9915   */\n              pop\n                /* \"#utility.yul\":9646:9915   */\n              pop\n              pop\n              pop\n              jump\t// out\n                /* \"#utility.yul\":9921:9994   */\n            tag_116:\n                /* \"#utility.yul\":9966:9969   */\n              0x00\n                /* \"#utility.yul\":9921:9994   */\n              swap1\n              jump\t// out\n                /* \"#utility.yul\":10000:10189   */\n            tag_117:\n                /* \"#utility.yul\":10077:10109   */\n              tag_238\n              tag_116\n              jump\t// in\n            tag_238:\n                /* \"#utility.yul\":10118:10183   */\n              tag_239\n                /* \"#utility.yul\":10176:10182   */\n              dup2\n                /* \"#utility.yul\":10168:10174   */\n              dup5\n                /* \"#utility.yul\":10162:10166   */\n              dup5\n                /* \"#utility.yul\":10118:10183   */\n              tag_115\n              jump\t// in\n            tag_239:\n                /* \"#utility.yul\":10053:10189   */\n              pop\n                /* \"#utility.yul\":10000:10189   */\n              pop\n              pop\n              jump\t// out\n                /* \"#utility.yul\":10195:10381   */\n            tag_118:\n                /* \"#utility.yul\":10255:10375   */\n            tag_241:\n                /* \"#utility.yul\":10272:10275   */\n              dup2\n                /* \"#utility.yul\":10265:10270   */\n              dup2\n                /* \"#utility.yul\":10262:10276   */\n              lt\n                /* \"#utility.yul\":10255:10375   */\n              iszero\n              tag_243\n              jumpi\n                /* \"#utility.yul\":10326:10365   */\n              tag_244\n                /* \"#utility.yul\":10363:10364   */\n              0x00\n                /* \"#utility.yul\":10356:10361   */\n              dup3\n                /* \"#utility.yul\":10326:10365   */\n              tag_117\n              jump\t// in\n            tag_244:\n                /* \"#utility.yul\":10299:10300   */\n              0x01\n                /* \"#utility.yul\":10292:10297   */\n              dup2\n                /* \"#utility.yul\":10288:10301   */\n              add\n                /* \"#utility.yul\":10279:10301   */\n              swap1\n              pop\n                /* \"#utility.yul\":10255:10375   */\n              jump(tag_241)\n            tag_243:\n                /* \"#utility.yul\":10195:10381   */\n              pop\n              pop\n              jump\t// out\n                /* \"#utility.yul\":10387:10930   */\n            tag_119:\n                /* \"#utility.yul\":10488:10490   */\n              0x1f\n                /* \"#utility.yul\":10483:10486   */\n              dup3\n                /* \"#utility.yul\":10480:10491   */\n              gt\n                /* \"#utility.yul\":10477:10923   */\n              iszero\n              tag_246\n              jumpi\n                /* \"#utility.yul\":10522:10560   */\n              tag_247\n                /* \"#utility.yul\":10554:10559   */\n              dup2\n                /* \"#utility.yul\":10522:10560   */\n              tag_108\n              jump\t// in\n            tag_247:\n                /* \"#utility.yul\":10606:10635   */\n              tag_248\n                /* \"#utility.yul\":10624:10634   */\n              dup5\n                /* \"#utility.yul\":10606:10635   */\n              tag_109\n              jump\t// in\n            tag_248:\n                /* \"#utility.yul\":10596:10604   */\n              dup2\n                /* \"#utility.yul\":10592:10636   */\n              add\n                /* \"#utility.yul\":10789:10791   */\n              0x20\n                /* \"#utility.yul\":10777:10787   */\n              dup6\n                /* \"#utility.yul\":10774:10792   */\n              lt\n                /* \"#utility.yul\":10771:10820   */\n              iszero\n              tag_249\n              jumpi\n                /* \"#utility.yul\":10810:10818   */\n              dup2\n                /* \"#utility.yul\":10795:10818   */\n              swap1\n              pop\n                /* \"#utility.yul\":10771:10820   */\n            tag_249:\n                /* \"#utility.yul\":10833:10913   */\n              tag_250\n                /* \"#utility.yul\":10889:10911   */\n              tag_251\n                /* \"#utility.yul\":10907:10910   */\n              dup6\n                /* \"#utility.yul\":10889:10911   */\n              tag_109\n              jump\t// in\n            tag_251:\n                /* \"#utility.yul\":10879:10887   */\n              dup4\n                /* \"#utility.yul\":10875:10912   */\n              add\n                /* \"#utility.yul\":10862:10873   */\n              dup3\n                /* \"#utility.yul\":10833:10913   */\n              tag_118\n              jump\t// in\n            tag_250:\n                /* \"#utility.yul\":10492:10923   */\n              pop\n              pop\n                /* \"#utility.yul\":10477:10923   */\n            tag_246:\n                /* \"#utility.yul\":10387:10930   */\n              pop\n              pop\n              pop\n              jump\t// out\n                /* \"#utility.yul\":10936:11053   */\n            tag_120:\n                /* \"#utility.yul\":10990:10998   */\n              0x00\n                /* \"#utility.yul\":11040:11045   */\n              dup3\n                /* \"#utility.yul\":11034:11038   */\n              dup3\n                /* \"#utility.yul\":11030:11046   */\n              shr\n                /* \"#utility.yul\":11009:11046   */\n              swap1\n              pop\n                /* \"#utility.yul\":10936:11053   */\n              swap3\n              swap2\n              pop\n              pop\n              jump\t// out\n                /* \"#utility.yul\":11059:11228   */\n            tag_121:\n                /* \"#utility.yul\":11103:11109   */\n              0x00\n                /* \"#utility.yul\":11136:11187   */\n              tag_254\n                /* \"#utility.yul\":11184:11185   */\n              0x00\n                /* \"#utility.yul\":11180:11186   */\n              not\n                /* \"#utility.yul\":11172:11177   */\n              dup5\n                /* \"#utility.yul\":11169:11170   */\n              0x08\n                /* \"#utility.yul\":11165:11178   */\n              mul\n                /* \"#utility.yul\":11136:11187   */\n              tag_120\n              jump\t// in\n            tag_254:\n                /* \"#utility.yul\":11132:11188   */\n              not\n                /* \"#utility.yul\":11217:11221   */\n              dup1\n                /* \"#utility.yul\":11211:11215   */\n              dup4\n                /* \"#utility.yul\":11207:11222   */\n              and\n                /* \"#utility.yul\":11197:11222   */\n              swap2\n              pop\n                /* \"#utility.yul\":11110:11228   */\n              pop\n                /* \"#utility.yul\":11059:11228   */\n              swap3\n              swap2\n              pop\n              pop\n              jump\t// out\n                /* \"#utility.yul\":11233:11528   */\n            tag_122:\n                /* \"#utility.yul\":11309:11313   */\n              0x00\n                /* \"#utility.yul\":11455:11484   */\n              tag_256\n                /* \"#utility.yul\":11480:11483   */\n              dup4\n                /* \"#utility.yul\":11474:11478   */\n              dup4\n                /* \"#utility.yul\":11455:11484   */\n              tag_121\n              jump\t// in\n            tag_256:\n                /* \"#utility.yul\":11447:11484   */\n              swap2\n              pop\n                /* \"#utility.yul\":11517:11520   */\n              dup3\n                /* \"#utility.yul\":11514:11515   */\n              0x02\n                /* \"#utility.yul\":11510:11521   */\n              mul\n                /* \"#utility.yul\":11504:11508   */\n              dup3\n                /* \"#utility.yul\":11501:11522   */\n              or\n                /* \"#utility.yul\":11493:11522   */\n              swap1\n              pop\n                /* \"#utility.yul\":11233:11528   */\n              swap3\n              swap2\n              pop\n              pop\n              jump\t// out\n                /* \"#utility.yul\":11533:12928   */\n            tag_67:\n                /* \"#utility.yul\":11650:11687   */\n              tag_258\n                /* \"#utility.yul\":11683:11686   */\n              dup3\n                /* \"#utility.yul\":11650:11687   */\n              tag_105\n              jump\t// in\n            tag_258:\n                /* \"#utility.yul\":11752:11770   */\n              0xffffffffffffffff\n                /* \"#utility.yul\":11744:11750   */\n              dup2\n                /* \"#utility.yul\":11741:11771   */\n              gt\n                /* \"#utility.yul\":11738:11794   */\n              iszero\n              tag_259\n              jumpi\n                /* \"#utility.yul\":11774:11792   */\n              tag_260\n              tag_93\n              jump\t// in\n            tag_260:\n                /* \"#utility.yul\":11738:11794   */\n            tag_259:\n                /* \"#utility.yul\":11818:11856   */\n              tag_261\n                /* \"#utility.yul\":11850:11854   */\n              dup3\n                /* \"#utility.yul\":11844:11855   */\n              sload\n                /* \"#utility.yul\":11818:11856   */\n              tag_107\n              jump\t// in\n            tag_261:\n                /* \"#utility.yul\":11903:11970   */\n              tag_262\n                /* \"#utility.yul\":11963:11969   */\n              dup3\n                /* \"#utility.yul\":11955:11961   */\n              dup3\n                /* \"#utility.yul\":11949:11953   */\n              dup6\n                /* \"#utility.yul\":11903:11970   */\n              tag_119\n              jump\t// in\n            tag_262:\n                /* \"#utility.yul\":11997:11998   */\n              0x00\n                /* \"#utility.yul\":12021:12025   */\n              0x20\n                /* \"#utility.yul\":12008:12025   */\n              swap1\n              pop\n                /* \"#utility.yul\":12053:12055   */\n              0x1f\n                /* \"#utility.yul\":12045:12051   */\n              dup4\n                /* \"#utility.yul\":12042:12056   */\n              gt\n                /* \"#utility.yul\":12070:12071   */\n              0x01\n                /* \"#utility.yul\":12065:12683   */\n              dup2\n              eq\n              tag_264\n              jumpi\n                /* \"#utility.yul\":12727:12728   */\n              0x00\n                /* \"#utility.yul\":12744:12750   */\n              dup5\n                /* \"#utility.yul\":12741:12818   */\n              iszero\n              tag_265\n              jumpi\n                /* \"#utility.yul\":12793:12802   */\n              dup3\n                /* \"#utility.yul\":12788:12791   */\n              dup8\n                /* \"#utility.yul\":12784:12803   */\n              add\n                /* \"#utility.yul\":12778:12804   */\n              mload\n                /* \"#utility.yul\":12769:12804   */\n              swap1\n              pop\n                /* \"#utility.yul\":12741:12818   */\n            tag_265:\n                /* \"#utility.yul\":12844:12911   */\n              tag_266\n                /* \"#utility.yul\":12904:12910   */\n              dup6\n                /* \"#utility.yul\":12897:12902   */\n              dup3\n                /* \"#utility.yul\":12844:12911   */\n              tag_122\n              jump\t// in\n            tag_266:\n                /* \"#utility.yul\":12838:12842   */\n              dup7\n                /* \"#utility.yul\":12831:12912   */\n              sstore\n                /* \"#utility.yul\":12700:12922   */\n              pop\n                /* \"#utility.yul\":12035:12922   */\n              jump(tag_263)\n                /* \"#utility.yul\":12065:12683   */\n            tag_264:\n                /* \"#utility.yul\":12117:12121   */\n              0x1f\n                /* \"#utility.yul\":12113:12122   */\n              not\n                /* \"#utility.yul\":12105:12111   */\n              dup5\n                /* \"#utility.yul\":12101:12123   */\n              and\n                /* \"#utility.yul\":12151:12188   */\n              tag_267\n                /* \"#utility.yul\":12183:12187   */\n              dup7\n                /* \"#utility.yul\":12151:12188   */\n              tag_108\n              jump\t// in\n            tag_267:\n                /* \"#utility.yul\":12210:12211   */\n              0x00\n                /* \"#utility.yul\":12224:12432   */\n            tag_268:\n                /* \"#utility.yul\":12238:12245   */\n              dup3\n                /* \"#utility.yul\":12235:12236   */\n              dup2\n                /* \"#utility.yul\":12232:12246   */\n              lt\n                /* \"#utility.yul\":12224:12432   */\n              iszero\n              tag_270\n              jumpi\n                /* \"#utility.yul\":12317:12326   */\n              dup5\n                /* \"#utility.yul\":12312:12315   */\n              dup10\n                /* \"#utility.yul\":12308:12327   */\n              add\n                /* \"#utility.yul\":12302:12328   */\n              mload\n                /* \"#utility.yul\":12294:12300   */\n              dup3\n                /* \"#utility.yul\":12287:12329   */\n              sstore\n                /* \"#utility.yul\":12368:12369   */\n              0x01\n                /* \"#utility.yul\":12360:12366   */\n              dup3\n                /* \"#utility.yul\":12356:12370   */\n              add\n                /* \"#utility.yul\":12346:12370   */\n              swap2\n              pop\n                /* \"#utility.yul\":12415:12417   */\n              0x20\n                /* \"#utility.yul\":12404:12413   */\n              dup6\n                /* \"#utility.yul\":12400:12418   */\n              add\n                /* \"#utility.yul\":12387:12418   */\n              swap5\n              pop\n                /* \"#utility.yul\":12261:12265   */\n              0x20\n                /* \"#utility.yul\":12258:12259   */\n              dup2\n                /* \"#utility.yul\":12254:12266   */\n              add\n                /* \"#utility.yul\":12249:12266   */\n              swap1\n              pop\n                /* \"#utility.yul\":12224:12432   */\n              jump(tag_268)\n            tag_270:\n                /* \"#utility.yul\":12460:12466   */\n              dup7\n                /* \"#utility.yul\":12451:12458   */\n              dup4\n                /* \"#utility.yul\":12448:12467   */\n              lt\n                /* \"#utility.yul\":12445:12624   */\n              iszero\n              tag_271\n              jumpi\n                /* \"#utility.yul\":12518:12527   */\n              dup5\n                /* \"#utility.yul\":12513:12516   */\n              dup10\n                /* \"#utility.yul\":12509:12528   */\n              add\n                /* \"#utility.yul\":12503:12529   */\n              mload\n                /* \"#utility.yul\":12561:12609   */\n              tag_272\n                /* \"#utility.yul\":12603:12607   */\n              0x1f\n                /* \"#utility.yul\":12595:12601   */\n              dup10\n                /* \"#utility.yul\":12591:12608   */\n              and\n                /* \"#utility.yul\":12580:12589   */\n              dup3\n                /* \"#utility.yul\":12561:12609   */\n              tag_121\n              jump\t// in\n            tag_272:\n                /* \"#utility.yul\":12553:12559   */\n              dup4\n                /* \"#utility.yul\":12546:12610   */\n              sstore\n                /* \"#utility.yul\":12468:12624   */\n              pop\n                /* \"#utility.yul\":12445:12624   */\n            tag_271:\n                /* \"#utility.yul\":12670:12671   */\n              0x01\n                /* \"#utility.yul\":12666:12667   */\n              0x02\n                /* \"#utility.yul\":12658:12664   */\n              dup9\n                /* \"#utility.yul\":12654:12668   */\n              mul\n                /* \"#utility.yul\":12650:12672   */\n              add\n                /* \"#utility.yul\":12644:12648   */\n              dup9\n                /* \"#utility.yul\":12637:12673   */\n              sstore\n                /* \"#utility.yul\":12072:12683   */\n              pop\n              pop\n              pop\n                /* \"#utility.yul\":12035:12922   */\n            tag_263:\n              pop\n                /* \"#utility.yul\":11625:12928   */\n              pop\n              pop\n              pop\n                /* \"#utility.yul\":11533:12928   */\n              pop\n              pop\n              jump\t// out\n\n            auxdata: 0xa26469706673582212209f81f52d8da16f830807abd35a97092b09debbef6dba5bb5c41450ee48740d7464736f6c63430008110033\n        }\n    }\n\n    auxdata: 0xa26469706673582212205a97dfd63fb50b81186a5901f0389bd32ee9754700e0ab838eda4943e802708864736f6c63430008110033\n}\n","bytecode":{"linkReferences":{},"object":"608060405234801561001057600080fd5b5061145c806100206000396000f3fe608060405234801561001057600080fd5b50600436106100415760003560e01c80634af9edfe14610046578063939fc27614610076578063d9c4ee1e14610094575b600080fd5b610060600480360381019061005b9190610266565b6100b0565b60405161006d91906102d4565b60405180910390f35b61007e6100ef565b60405161008b91906103ad565b60405180910390f35b6100ae60048036038101906100a99190610266565b61017d565b005b600081815481106100c057600080fd5b906000526020600020016000915054906101000a900473ffffffffffffffffffffffffffffffffffffffff1681565b6060600080548060200260200160405190810160405280929190818152602001828054801561017357602002820191906000526020600020905b8160009054906101000a900473ffffffffffffffffffffffffffffffffffffffff1673ffffffffffffffffffffffffffffffffffffffff1681526020019060010190808311610129575b5050505050905090565b6000813360405161018d9061021e565b6101989291906103de565b604051809103906000f0801580156101b4573d6000803e3d6000fd5b5090506000819080600181540180825580915050600190039060005260206000200160009091909190916101000a81548173ffffffffffffffffffffffffffffffffffffffff021916908373ffffffffffffffffffffffffffffffffffffffff1602179055505050565b61101f8061040883390190565b600080fd5b6000819050919050565b61024381610230565b811461024e57600080fd5b50565b6000813590506102608161023a565b92915050565b60006020828403121561027c5761027b61022b565b5b600061028a84828501610251565b91505092915050565b600073ffffffffffffffffffffffffffffffffffffffff82169050919050565b60006102be82610293565b9050919050565b6102ce816102b3565b82525050565b60006020820190506102e960008301846102c5565b92915050565b600081519050919050565b600082825260208201905092915050565b6000819050602082019050919050565b610324816102b3565b82525050565b6000610336838361031b565b60208301905092915050565b6000602082019050919050565b600061035a826102ef565b61036481856102fa565b935061036f8361030b565b8060005b838110156103a0578151610387888261032a565b975061039283610342565b925050600181019050610373565b5085935050505092915050565b600060208201905081810360008301526103c7818461034f565b905092915050565b6103d881610230565b82525050565b60006040820190506103f360008301856103cf565b61040060208301846102c5565b939250505056fe60806040523480156200001157600080fd5b506040516200101f3803806200101f83398181016040528101906200003791906200012b565b806000806101000a81548173ffffffffffffffffffffffffffffffffffffffff021916908373ffffffffffffffffffffffffffffffffffffffff16021790555081600181905550505062000172565b600080fd5b6000819050919050565b620000a0816200008b565b8114620000ac57600080fd5b50565b600081519050620000c08162000095565b92915050565b600073ffffffffffffffffffffffffffffffffffffffff82169050919050565b6000620000f382620000c6565b9050919050565b6200010581620000e6565b81146200011157600080fd5b50565b6000815190506200012581620000fa565b92915050565b6000806040838503121562000145576200014462000086565b5b60006200015585828601620000af565b9250506020620001688582860162000114565b9150509250929050565b610e9d80620001826000396000f3fe60806040526004361061007b5760003560e01c80638a9cfd551161004e5780638a9cfd551461013c578063937e09b114610165578063d7bb99ba14610190578063d7d1bbdb1461019a5761007b565b806303441006146100805780630a144391146100a9578063481c6a75146100e657806382fde09314610111575b600080fd5b34801561008c57600080fd5b506100a760048036038101906100a29190610733565b6101c3565b005b3480156100b557600080fd5b506100d060048036038101906100cb91906107be565b610331565b6040516100dd9190610806565b60405180910390f35b3480156100f257600080fd5b506100fb610351565b6040516101089190610830565b60405180910390f35b34801561011d57600080fd5b50610126610375565b604051610133919061085a565b60405180910390f35b34801561014857600080fd5b50610163600480360381019061015e91906109bb565b61037b565b005b34801561017157600080fd5b5061017a610517565b604051610187919061085a565b60405180910390f35b61019861051d565b005b3480156101a657600080fd5b506101c160048036038101906101bc9190610733565b61059d565b005b60008054906101000a900473ffffffffffffffffffffffffffffffffffffffff1673ffffffffffffffffffffffffffffffffffffffff163373ffffffffffffffffffffffffffffffffffffffff1614610251576040517f08c379a000000000000000000000000000000000000000000000000000000000815260040161024890610a87565b60405180910390fd5b60006005600083815260200190815260200160002090508060020160149054906101000a900460ff161561028457600080fd5b600280546102929190610b05565b8160030154116102a157600080fd5b8060020160009054906101000a900473ffffffffffffffffffffffffffffffffffffffff1673ffffffffffffffffffffffffffffffffffffffff166108fc82600101549081150290604051600060405180830381858888f1935050505015801561030f573d6000803e3d6000fd5b5060018160020160146101000a81548160ff0219169083151502179055505050565b60036020528060005260406000206000915054906101000a900460ff1681565b60008054906101000a900473ffffffffffffffffffffffffffffffffffffffff1681565b60025481565b60008054906101000a900473ffffffffffffffffffffffffffffffffffffffff1673ffffffffffffffffffffffffffffffffffffffff163373ffffffffffffffffffffffffffffffffffffffff1614610409576040517f08c379a000000000000000000000000000000000000000000000000000000000815260040161040090610a87565b60405180910390fd5b600360003373ffffffffffffffffffffffffffffffffffffffff1673ffffffffffffffffffffffffffffffffffffffff16815260200190815260200160002060009054906101000a900460ff1661045f57600080fd5b6000600560006004600081548092919061047890610b36565b91905055815260200190815260200160002090508381600001908161049d9190610d95565b50828160010181905550818160020160006101000a81548173ffffffffffffffffffffffffffffffffffffffff021916908373ffffffffffffffffffffffffffffffffffffffff16021790555060008160020160146101000a81548160ff0219169083151502179055506000816003018190555050505050565b60015481565b600154341161052b57600080fd5b6001600360003373ffffffffffffffffffffffffffffffffffffffff1673ffffffffffffffffffffffffffffffffffffffff16815260200190815260200160002060006101000a81548160ff0219169083151502179055506002600081548092919061059690610b36565b9190505550565b6000600560008381526020019081526020016000209050600360003373ffffffffffffffffffffffffffffffffffffffff1673ffffffffffffffffffffffffffffffffffffffff16815260200190815260200160002060009054906101000a900460ff1661060a57600080fd5b600454821061061857600080fd5b8060040160003373ffffffffffffffffffffffffffffffffffffffff1673ffffffffffffffffffffffffffffffffffffffff16815260200190815260200160002060009054906101000a900460ff161561067157600080fd5b80600301600081548092919061068690610b36565b919050555060018160040160003373ffffffffffffffffffffffffffffffffffffffff1673ffffffffffffffffffffffffffffffffffffffff16815260200190815260200160002060006101000a81548160ff0219169083151502179055505050565b6000604051905090565b600080fd5b600080fd5b6000819050919050565b610710816106fd565b811461071b57600080fd5b50565b60008135905061072d81610707565b92915050565b600060208284031215610749576107486106f3565b5b60006107578482850161071e565b91505092915050565b600073ffffffffffffffffffffffffffffffffffffffff82169050919050565b600061078b82610760565b9050919050565b61079b81610780565b81146107a657600080fd5b50565b6000813590506107b881610792565b92915050565b6000602082840312156107d4576107d36106f3565b5b60006107e2848285016107a9565b91505092915050565b60008115159050919050565b610800816107eb565b82525050565b600060208201905061081b60008301846107f7565b92915050565b61082a81610780565b82525050565b60006020820190506108456000830184610821565b92915050565b610854816106fd565b82525050565b600060208201905061086f600083018461084b565b92915050565b600080fd5b600080fd5b6000601f19601f8301169050919050565b7f4e487b7100000000000000000000000000000000000000000000000000000000600052604160045260246000fd5b6108c88261087f565b810181811067ffffffffffffffff821117156108e7576108e6610890565b5b80604052505050565b60006108fa6106e9565b905061090682826108bf565b919050565b600067ffffffffffffffff82111561092657610925610890565b5b61092f8261087f565b9050602081019050919050565b82818337600083830152505050565b600061095e6109598461090b565b6108f0565b90508281526020810184848401111561097a5761097961087a565b5b61098584828561093c565b509392505050565b600082601f8301126109a2576109a1610875565b5b81356109b284826020860161094b565b91505092915050565b6000806000606084860312156109d4576109d36106f3565b5b600084013567ffffffffffffffff8111156109f2576109f16106f8565b5b6109fe8682870161098d565b9350506020610a0f8682870161071e565b9250506040610a20868287016107a9565b9150509250925092565b600082825260208201905092915050565b7f796f7520617265206e6f7420746865206d616e61676572210000000000000000600082015250565b6000610a71601883610a2a565b9150610a7c82610a3b565b602082019050919050565b60006020820190508181036000830152610aa081610a64565b9050919050565b7f4e487b7100000000000000000000000000000000000000000000000000000000600052601260045260246000fd5b7f4e487b7100000000000000000000000000000000000000000000000000000000600052601160045260246000fd5b6000610b10826106fd565b9150610b1b836106fd565b925082610b2b57610b2a610aa7565b5b828204905092915050565b6000610b41826106fd565b91507fffffffffffffffffffffffffffffffffffffffffffffffffffffffffffffffff8203610b7357610b72610ad6565b5b600182019050919050565b600081519050919050565b7f4e487b7100000000000000000000000000000000000000000000000000000000600052602260045260246000fd5b60006002820490506001821680610bd057607f821691505b602082108103610be357610be2610b89565b5b50919050565b60008190508160005260206000209050919050565b60006020601f8301049050919050565b600082821b905092915050565b600060088302610c4b7fffffffffffffffffffffffffffffffffffffffffffffffffffffffffffffffff82610c0e565b610c558683610c0e565b95508019841693508086168417925050509392505050565b6000819050919050565b6000610c92610c8d610c88846106fd565b610c6d565b6106fd565b9050919050565b6000819050919050565b610cac83610c77565b610cc0610cb882610c99565b848454610c1b565b825550505050565b600090565b610cd5610cc8565b610ce0818484610ca3565b505050565b5b81811015610d0457610cf9600082610ccd565b600181019050610ce6565b5050565b601f821115610d4957610d1a81610be9565b610d2384610bfe565b81016020851015610d32578190505b610d46610d3e85610bfe565b830182610ce5565b50505b505050565b600082821c905092915050565b6000610d6c60001984600802610d4e565b1980831691505092915050565b6000610d858383610d5b565b9150826002028217905092915050565b610d9e82610b7e565b67ffffffffffffffff811115610db757610db6610890565b5b610dc18254610bb8565b610dcc828285610d08565b600060209050601f831160018114610dff5760008415610ded578287015190505b610df78582610d79565b865550610e5f565b601f198416610e0d86610be9565b60005b82811015610e3557848901518255600182019150602085019450602081019050610e10565b86831015610e525784890151610e4e601f891682610d5b565b8355505b6001600288020188555050505b50505050505056fea26469706673582212209f81f52d8da16f830807abd35a97092b09debbef6dba5bb5c41450ee48740d7464736f6c63430008110033a26469706673582212205a97dfd63fb50b81186a5901f0389bd32ee9754700e0ab838eda4943e802708864736f6c63430008110033","opcodes":"PUSH1 0x80 PUSH1 0x40 MSTORE CALLVALUE DUP1 ISZERO PUSH2 0x10 JUMPI PUSH1 0x0 DUP1 REVERT JUMPDEST POP PUSH2 0x145C DUP1 PUSH2 0x20 PUSH1 0x0 CODECOPY PUSH1 0x0 RETURN INVALID PUSH1 0x80 PUSH1 0x40 MSTORE CALLVALUE DUP1 ISZERO PUSH2 0x10 JUMPI PUSH1 0x0 DUP1 REVERT JUMPDEST POP PUSH1 0x4 CALLDATASIZE LT PUSH2 0x41 JUMPI PUSH1 0x0 CALLDATALOAD PUSH1 0xE0 SHR DUP1 PUSH4 0x4AF9EDFE EQ PUSH2 0x46 JUMPI DUP1 PUSH4 0x939FC276 EQ PUSH2 0x76 JUMPI DUP1 PUSH4 0xD9C4EE1E EQ PUSH2 0x94 JUMPI JUMPDEST PUSH1 0x0 DUP1 REVERT JUMPDEST PUSH2 0x60 PUSH1 0x4 DUP1 CALLDATASIZE SUB DUP2 ADD SWAP1 PUSH2 0x5B SWAP2 SWAP1 PUSH2 0x266 JUMP JUMPDEST PUSH2 0xB0 JUMP JUMPDEST PUSH1 0x40 MLOAD PUSH2 0x6D SWAP2 SWAP1 PUSH2 0x2D4 JUMP JUMPDEST PUSH1 0x40 MLOAD DUP1 SWAP2 SUB SWAP1 RETURN JUMPDEST PUSH2 0x7E PUSH2 0xEF JUMP JUMPDEST PUSH1 0x40 MLOAD PUSH2 0x8B SWAP2 SWAP1 PUSH2 0x3AD JUMP JUMPDEST PUSH1 0x40 MLOAD DUP1 SWAP2 SUB SWAP1 RETURN JUMPDEST PUSH2 0xAE PUSH1 0x4 DUP1 CALLDATASIZE SUB DUP2 ADD SWAP1 PUSH2 0xA9 SWAP2 SWAP1 PUSH2 0x266 JUMP JUMPDEST PUSH2 0x17D JUMP JUMPDEST STOP JUMPDEST PUSH1 0x0 DUP2 DUP2 SLOAD DUP2 LT PUSH2 0xC0 JUMPI PUSH1 0x0 DUP1 REVERT JUMPDEST SWAP1 PUSH1 0x0 MSTORE PUSH1 0x20 PUSH1 0x0 KECCAK256 ADD PUSH1 0x0 SWAP2 POP SLOAD SWAP1 PUSH2 0x100 EXP SWAP1 DIV PUSH20 0xFFFFFFFFFFFFFFFFFFFFFFFFFFFFFFFFFFFFFFFF AND DUP2 JUMP JUMPDEST PUSH1 0x60 PUSH1 0x0 DUP1 SLOAD DUP1 PUSH1 0x20 MUL PUSH1 0x20 ADD PUSH1 0x40 MLOAD SWAP1 DUP2 ADD PUSH1 0x40 MSTORE DUP1 SWAP3 SWAP2 SWAP1 DUP2 DUP2 MSTORE PUSH1 0x20 ADD DUP3 DUP1 SLOAD DUP1 ISZERO PUSH2 0x173 JUMPI PUSH1 0x20 MUL DUP3 ADD SWAP2 SWAP1 PUSH1 0x0 MSTORE PUSH1 0x20 PUSH1 0x0 KECCAK256 SWAP1 JUMPDEST DUP2 PUSH1 0x0 SWAP1 SLOAD SWAP1 PUSH2 0x100 EXP SWAP1 DIV PUSH20 0xFFFFFFFFFFFFFFFFFFFFFFFFFFFFFFFFFFFFFFFF AND PUSH20 0xFFFFFFFFFFFFFFFFFFFFFFFFFFFFFFFFFFFFFFFF AND DUP2 MSTORE PUSH1 0x20 ADD SWAP1 PUSH1 0x1 ADD SWAP1 DUP1 DUP4 GT PUSH2 0x129 JUMPI JUMPDEST POP POP POP POP POP SWAP1 POP SWAP1 JUMP JUMPDEST PUSH1 0x0 DUP2 CALLER PUSH1 0x40 MLOAD PUSH2 0x18D SWAP1 PUSH2 0x21E JUMP JUMPDEST PUSH2 0x198 SWAP3 SWAP2 SWAP1 PUSH2 0x3DE JUMP JUMPDEST PUSH1 0x40 MLOAD DUP1 SWAP2 SUB SWAP1 PUSH1 0x0 CREATE DUP1 ISZERO DUP1 ISZERO PUSH2 0x1B4 JUMPI RETURNDATASIZE PUSH1 0x0 DUP1 RETURNDATACOPY RETURNDATASIZE PUSH1 0x0 REVERT JUMPDEST POP SWAP1 POP PUSH1 0x0 DUP2 SWAP1 DUP1 PUSH1 0x1 DUP2 SLOAD ADD DUP1 DUP3 SSTORE DUP1 SWAP2 POP POP PUSH1 0x1 SWAP1 SUB SWAP1 PUSH1 0x0 MSTORE PUSH1 0x20 PUSH1 0x0 KECCAK256 ADD PUSH1 0x0 SWAP1 SWAP2 SWAP1 SWAP2 SWAP1 SWAP2 PUSH2 0x100 EXP DUP2 SLOAD DUP2 PUSH20 0xFFFFFFFFFFFFFFFFFFFFFFFFFFFFFFFFFFFFFFFF MUL NOT AND SWAP1 DUP4 PUSH20 0xFFFFFFFFFFFFFFFFFFFFFFFFFFFFFFFFFFFFFFFF AND MUL OR SWAP1 SSTORE POP POP POP JUMP JUMPDEST PUSH2 0x101F DUP1 PUSH2 0x408 DUP4 CODECOPY ADD SWAP1 JUMP JUMPDEST PUSH1 0x0 DUP1 REVERT JUMPDEST PUSH1 0x0 DUP2 SWAP1 POP SWAP2 SWAP1 POP JUMP JUMPDEST PUSH2 0x243 DUP2 PUSH2 0x230 JUMP JUMPDEST DUP2 EQ PUSH2 0x24E JUMPI PUSH1 0x0 DUP1 REVERT JUMPDEST POP JUMP JUMPDEST PUSH1 0x0 DUP2 CALLDATALOAD SWAP1 POP PUSH2 0x260 DUP2 PUSH2 0x23A JUMP JUMPDEST SWAP3 SWAP2 POP POP JUMP JUMPDEST PUSH1 0x0 PUSH1 0x20 DUP3 DUP5 SUB SLT ISZERO PUSH2 0x27C JUMPI PUSH2 0x27B PUSH2 0x22B JUMP JUMPDEST JUMPDEST PUSH1 0x0 PUSH2 0x28A DUP5 DUP3 DUP6 ADD PUSH2 0x251 JUMP JUMPDEST SWAP2 POP POP SWAP3 SWAP2 POP POP JUMP JUMPDEST PUSH1 0x0 PUSH20 0xFFFFFFFFFFFFFFFFFFFFFFFFFFFFFFFFFFFFFFFF DUP3 AND SWAP1 POP SWAP2 SWAP1 POP JUMP JUMPDEST PUSH1 0x0 PUSH2 0x2BE DUP3 PUSH2 0x293 JUMP JUMPDEST SWAP1 POP SWAP2 SWAP1 POP JUMP JUMPDEST PUSH2 0x2CE DUP2 PUSH2 0x2B3 JUMP JUMPDEST DUP3 MSTORE POP POP JUMP JUMPDEST PUSH1 0x0 PUSH1 0x20 DUP3 ADD SWAP1 POP PUSH2 0x2E9 PUSH1 0x0 DUP4 ADD DUP5 PUSH2 0x2C5 JUMP JUMPDEST SWAP3 SWAP2 POP POP JUMP JUMPDEST PUSH1 0x0 DUP2 MLOAD SWAP1 POP SWAP2 SWAP1 POP JUMP JUMPDEST PUSH1 0x0 DUP3 DUP3 MSTORE PUSH1 0x20 DUP3 ADD SWAP1 POP SWAP3 SWAP2 POP POP JUMP JUMPDEST PUSH1 0x0 DUP2 SWAP1 POP PUSH1 0x20 DUP3 ADD SWAP1 POP SWAP2 SWAP1 POP JUMP JUMPDEST PUSH2 0x324 DUP2 PUSH2 0x2B3 JUMP JUMPDEST DUP3 MSTORE POP POP JUMP JUMPDEST PUSH1 0x0 PUSH2 0x336 DUP4 DUP4 PUSH2 0x31B JUMP JUMPDEST PUSH1 0x20 DUP4 ADD SWAP1 POP SWAP3 SWAP2 POP POP JUMP JUMPDEST PUSH1 0x0 PUSH1 0x20 DUP3 ADD SWAP1 POP SWAP2 SWAP1 POP JUMP JUMPDEST PUSH1 0x0 PUSH2 0x35A DUP3 PUSH2 0x2EF JUMP JUMPDEST PUSH2 0x364 DUP2 DUP6 PUSH2 0x2FA JUMP JUMPDEST SWAP4 POP PUSH2 0x36F DUP4 PUSH2 0x30B JUMP JUMPDEST DUP1 PUSH1 0x0 JUMPDEST DUP4 DUP2 LT ISZERO PUSH2 0x3A0 JUMPI DUP2 MLOAD PUSH2 0x387 DUP9 DUP3 PUSH2 0x32A JUMP JUMPDEST SWAP8 POP PUSH2 0x392 DUP4 PUSH2 0x342 JUMP JUMPDEST SWAP3 POP POP PUSH1 0x1 DUP2 ADD SWAP1 POP PUSH2 0x373 JUMP JUMPDEST POP DUP6 SWAP4 POP POP POP POP SWAP3 SWAP2 POP POP JUMP JUMPDEST PUSH1 0x0 PUSH1 0x20 DUP3 ADD SWAP1 POP DUP2 DUP2 SUB PUSH1 0x0 DUP4 ADD MSTORE PUSH2 0x3C7 DUP2 DUP5 PUSH2 0x34F JUMP JUMPDEST SWAP1 POP SWAP3 SWAP2 POP POP JUMP JUMPDEST PUSH2 0x3D8 DUP2 PUSH2 0x230 JUMP JUMPDEST DUP3 MSTORE POP POP JUMP JUMPDEST PUSH1 0x0 PUSH1 0x40 DUP3 ADD SWAP1 POP PUSH2 0x3F3 PUSH1 0x0 DUP4 ADD DUP6 PUSH2 0x3CF JUMP JUMPDEST PUSH2 0x400 PUSH1 0x20 DUP4 ADD DUP5 PUSH2 0x2C5 JUMP JUMPDEST SWAP4 SWAP3 POP POP POP JUMP INVALID PUSH1 0x80 PUSH1 0x40 MSTORE CALLVALUE DUP1 ISZERO PUSH3 0x11 JUMPI PUSH1 0x0 DUP1 REVERT JUMPDEST POP PUSH1 0x40 MLOAD PUSH3 0x101F CODESIZE SUB DUP1 PUSH3 0x101F DUP4 CODECOPY DUP2 DUP2 ADD PUSH1 0x40 MSTORE DUP2 ADD SWAP1 PUSH3 0x37 SWAP2 SWAP1 PUSH3 0x12B JUMP JUMPDEST DUP1 PUSH1 0x0 DUP1 PUSH2 0x100 EXP DUP2 SLOAD DUP2 PUSH20 0xFFFFFFFFFFFFFFFFFFFFFFFFFFFFFFFFFFFFFFFF MUL NOT AND SWAP1 DUP4 PUSH20 0xFFFFFFFFFFFFFFFFFFFFFFFFFFFFFFFFFFFFFFFF AND MUL OR SWAP1 SSTORE POP DUP2 PUSH1 0x1 DUP2 SWAP1 SSTORE POP POP POP PUSH3 0x172 JUMP JUMPDEST PUSH1 0x0 DUP1 REVERT JUMPDEST PUSH1 0x0 DUP2 SWAP1 POP SWAP2 SWAP1 POP JUMP JUMPDEST PUSH3 0xA0 DUP2 PUSH3 0x8B JUMP JUMPDEST DUP2 EQ PUSH3 0xAC JUMPI PUSH1 0x0 DUP1 REVERT JUMPDEST POP JUMP JUMPDEST PUSH1 0x0 DUP2 MLOAD SWAP1 POP PUSH3 0xC0 DUP2 PUSH3 0x95 JUMP JUMPDEST SWAP3 SWAP2 POP POP JUMP JUMPDEST PUSH1 0x0 PUSH20 0xFFFFFFFFFFFFFFFFFFFFFFFFFFFFFFFFFFFFFFFF DUP3 AND SWAP1 POP SWAP2 SWAP1 POP JUMP JUMPDEST PUSH1 0x0 PUSH3 0xF3 DUP3 PUSH3 0xC6 JUMP JUMPDEST SWAP1 POP SWAP2 SWAP1 POP JUMP JUMPDEST PUSH3 0x105 DUP2 PUSH3 0xE6 JUMP JUMPDEST DUP2 EQ PUSH3 0x111 JUMPI PUSH1 0x0 DUP1 REVERT JUMPDEST POP JUMP JUMPDEST PUSH1 0x0 DUP2 MLOAD SWAP1 POP PUSH3 0x125 DUP2 PUSH3 0xFA JUMP JUMPDEST SWAP3 SWAP2 POP POP JUMP JUMPDEST PUSH1 0x0 DUP1 PUSH1 0x40 DUP4 DUP6 SUB SLT ISZERO PUSH3 0x145 JUMPI PUSH3 0x144 PUSH3 0x86 JUMP JUMPDEST JUMPDEST PUSH1 0x0 PUSH3 0x155 DUP6 DUP3 DUP7 ADD PUSH3 0xAF JUMP JUMPDEST SWAP3 POP POP PUSH1 0x20 PUSH3 0x168 DUP6 DUP3 DUP7 ADD PUSH3 0x114 JUMP JUMPDEST SWAP2 POP POP SWAP3 POP SWAP3 SWAP1 POP JUMP JUMPDEST PUSH2 0xE9D DUP1 PUSH3 0x182 PUSH1 0x0 CODECOPY PUSH1 0x0 RETURN INVALID PUSH1 0x80 PUSH1 0x40 MSTORE PUSH1 0x4 CALLDATASIZE LT PUSH2 0x7B JUMPI PUSH1 0x0 CALLDATALOAD PUSH1 0xE0 SHR DUP1 PUSH4 0x8A9CFD55 GT PUSH2 0x4E JUMPI DUP1 PUSH4 0x8A9CFD55 EQ PUSH2 0x13C JUMPI DUP1 PUSH4 0x937E09B1 EQ PUSH2 0x165 JUMPI DUP1 PUSH4 0xD7BB99BA EQ PUSH2 0x190 JUMPI DUP1 PUSH4 0xD7D1BBDB EQ PUSH2 0x19A JUMPI PUSH2 0x7B JUMP JUMPDEST DUP1 PUSH4 0x3441006 EQ PUSH2 0x80 JUMPI DUP1 PUSH4 0xA144391 EQ PUSH2 0xA9 JUMPI DUP1 PUSH4 0x481C6A75 EQ PUSH2 0xE6 JUMPI DUP1 PUSH4 0x82FDE093 EQ PUSH2 0x111 JUMPI JUMPDEST PUSH1 0x0 DUP1 REVERT JUMPDEST CALLVALUE DUP1 ISZERO PUSH2 0x8C JUMPI PUSH1 0x0 DUP1 REVERT JUMPDEST POP PUSH2 0xA7 PUSH1 0x4 DUP1 CALLDATASIZE SUB DUP2 ADD SWAP1 PUSH2 0xA2 SWAP2 SWAP1 PUSH2 0x733 JUMP JUMPDEST PUSH2 0x1C3 JUMP JUMPDEST STOP JUMPDEST CALLVALUE DUP1 ISZERO PUSH2 0xB5 JUMPI PUSH1 0x0 DUP1 REVERT JUMPDEST POP PUSH2 0xD0 PUSH1 0x4 DUP1 CALLDATASIZE SUB DUP2 ADD SWAP1 PUSH2 0xCB SWAP2 SWAP1 PUSH2 0x7BE JUMP JUMPDEST PUSH2 0x331 JUMP JUMPDEST PUSH1 0x40 MLOAD PUSH2 0xDD SWAP2 SWAP1 PUSH2 0x806 JUMP JUMPDEST PUSH1 0x40 MLOAD DUP1 SWAP2 SUB SWAP1 RETURN JUMPDEST CALLVALUE DUP1 ISZERO PUSH2 0xF2 JUMPI PUSH1 0x0 DUP1 REVERT JUMPDEST POP PUSH2 0xFB PUSH2 0x351 JUMP JUMPDEST PUSH1 0x40 MLOAD PUSH2 0x108 SWAP2 SWAP1 PUSH2 0x830 JUMP JUMPDEST PUSH1 0x40 MLOAD DUP1 SWAP2 SUB SWAP1 RETURN JUMPDEST CALLVALUE DUP1 ISZERO PUSH2 0x11D JUMPI PUSH1 0x0 DUP1 REVERT JUMPDEST POP PUSH2 0x126 PUSH2 0x375 JUMP JUMPDEST PUSH1 0x40 MLOAD PUSH2 0x133 SWAP2 SWAP1 PUSH2 0x85A JUMP JUMPDEST PUSH1 0x40 MLOAD DUP1 SWAP2 SUB SWAP1 RETURN JUMPDEST CALLVALUE DUP1 ISZERO PUSH2 0x148 JUMPI PUSH1 0x0 DUP1 REVERT JUMPDEST POP PUSH2 0x163 PUSH1 0x4 DUP1 CALLDATASIZE SUB DUP2 ADD SWAP1 PUSH2 0x15E SWAP2 SWAP1 PUSH2 0x9BB JUMP JUMPDEST PUSH2 0x37B JUMP JUMPDEST STOP JUMPDEST CALLVALUE DUP1 ISZERO PUSH2 0x171 JUMPI PUSH1 0x0 DUP1 REVERT JUMPDEST POP PUSH2 0x17A PUSH2 0x517 JUMP JUMPDEST PUSH1 0x40 MLOAD PUSH2 0x187 SWAP2 SWAP1 PUSH2 0x85A JUMP JUMPDEST PUSH1 0x40 MLOAD DUP1 SWAP2 SUB SWAP1 RETURN JUMPDEST PUSH2 0x198 PUSH2 0x51D JUMP JUMPDEST STOP JUMPDEST CALLVALUE DUP1 ISZERO PUSH2 0x1A6 JUMPI PUSH1 0x0 DUP1 REVERT JUMPDEST POP PUSH2 0x1C1 PUSH1 0x4 DUP1 CALLDATASIZE SUB DUP2 ADD SWAP1 PUSH2 0x1BC SWAP2 SWAP1 PUSH2 0x733 JUMP JUMPDEST PUSH2 0x59D JUMP JUMPDEST STOP JUMPDEST PUSH1 0x0 DUP1 SLOAD SWAP1 PUSH2 0x100 EXP SWAP1 DIV PUSH20 0xFFFFFFFFFFFFFFFFFFFFFFFFFFFFFFFFFFFFFFFF AND PUSH20 0xFFFFFFFFFFFFFFFFFFFFFFFFFFFFFFFFFFFFFFFF AND CALLER PUSH20 0xFFFFFFFFFFFFFFFFFFFFFFFFFFFFFFFFFFFFFFFF AND EQ PUSH2 0x251 JUMPI PUSH1 0x40 MLOAD PUSH32 0x8C379A000000000000000000000000000000000000000000000000000000000 DUP2 MSTORE PUSH1 0x4 ADD PUSH2 0x248 SWAP1 PUSH2 0xA87 JUMP JUMPDEST PUSH1 0x40 MLOAD DUP1 SWAP2 SUB SWAP1 REVERT JUMPDEST PUSH1 0x0 PUSH1 0x5 PUSH1 0x0 DUP4 DUP2 MSTORE PUSH1 0x20 ADD SWAP1 DUP2 MSTORE PUSH1 0x20 ADD PUSH1 0x0 KECCAK256 SWAP1 POP DUP1 PUSH1 0x2 ADD PUSH1 0x14 SWAP1 SLOAD SWAP1 PUSH2 0x100 EXP SWAP1 DIV PUSH1 0xFF AND ISZERO PUSH2 0x284 JUMPI PUSH1 0x0 DUP1 REVERT JUMPDEST PUSH1 0x2 DUP1 SLOAD PUSH2 0x292 SWAP2 SWAP1 PUSH2 0xB05 JUMP JUMPDEST DUP2 PUSH1 0x3 ADD SLOAD GT PUSH2 0x2A1 JUMPI PUSH1 0x0 DUP1 REVERT JUMPDEST DUP1 PUSH1 0x2 ADD PUSH1 0x0 SWAP1 SLOAD SWAP1 PUSH2 0x100 EXP SWAP1 DIV PUSH20 0xFFFFFFFFFFFFFFFFFFFFFFFFFFFFFFFFFFFFFFFF AND PUSH20 0xFFFFFFFFFFFFFFFFFFFFFFFFFFFFFFFFFFFFFFFF AND PUSH2 0x8FC DUP3 PUSH1 0x1 ADD SLOAD SWAP1 DUP2 ISZERO MUL SWAP1 PUSH1 0x40 MLOAD PUSH1 0x0 PUSH1 0x40 MLOAD DUP1 DUP4 SUB DUP2 DUP6 DUP9 DUP9 CALL SWAP4 POP POP POP POP ISZERO DUP1 ISZERO PUSH2 0x30F JUMPI RETURNDATASIZE PUSH1 0x0 DUP1 RETURNDATACOPY RETURNDATASIZE PUSH1 0x0 REVERT JUMPDEST POP PUSH1 0x1 DUP2 PUSH1 0x2 ADD PUSH1 0x14 PUSH2 0x100 EXP DUP2 SLOAD DUP2 PUSH1 0xFF MUL NOT AND SWAP1 DUP4 ISZERO ISZERO MUL OR SWAP1 SSTORE POP POP POP JUMP JUMPDEST PUSH1 0x3 PUSH1 0x20 MSTORE DUP1 PUSH1 0x0 MSTORE PUSH1 0x40 PUSH1 0x0 KECCAK256 PUSH1 0x0 SWAP2 POP SLOAD SWAP1 PUSH2 0x100 EXP SWAP1 DIV PUSH1 0xFF AND DUP2 JUMP JUMPDEST PUSH1 0x0 DUP1 SLOAD SWAP1 PUSH2 0x100 EXP SWAP1 DIV PUSH20 0xFFFFFFFFFFFFFFFFFFFFFFFFFFFFFFFFFFFFFFFF AND DUP2 JUMP JUMPDEST PUSH1 0x2 SLOAD DUP2 JUMP JUMPDEST PUSH1 0x0 DUP1 SLOAD SWAP1 PUSH2 0x100 EXP SWAP1 DIV PUSH20 0xFFFFFFFFFFFFFFFFFFFFFFFFFFFFFFFFFFFFFFFF AND PUSH20 0xFFFFFFFFFFFFFFFFFFFFFFFFFFFFFFFFFFFFFFFF AND CALLER PUSH20 0xFFFFFFFFFFFFFFFFFFFFFFFFFFFFFFFFFFFFFFFF AND EQ PUSH2 0x409 JUMPI PUSH1 0x40 MLOAD PUSH32 0x8C379A000000000000000000000000000000000000000000000000000000000 DUP2 MSTORE PUSH1 0x4 ADD PUSH2 0x400 SWAP1 PUSH2 0xA87 JUMP JUMPDEST PUSH1 0x40 MLOAD DUP1 SWAP2 SUB SWAP1 REVERT JUMPDEST PUSH1 0x3 PUSH1 0x0 CALLER PUSH20 0xFFFFFFFFFFFFFFFFFFFFFFFFFFFFFFFFFFFFFFFF AND PUSH20 0xFFFFFFFFFFFFFFFFFFFFFFFFFFFFFFFFFFFFFFFF AND DUP2 MSTORE PUSH1 0x20 ADD SWAP1 DUP2 MSTORE PUSH1 0x20 ADD PUSH1 0x0 KECCAK256 PUSH1 0x0 SWAP1 SLOAD SWAP1 PUSH2 0x100 EXP SWAP1 DIV PUSH1 0xFF AND PUSH2 0x45F JUMPI PUSH1 0x0 DUP1 REVERT JUMPDEST PUSH1 0x0 PUSH1 0x5 PUSH1 0x0 PUSH1 0x4 PUSH1 0x0 DUP2 SLOAD DUP1 SWAP3 SWAP2 SWAP1 PUSH2 0x478 SWAP1 PUSH2 0xB36 JUMP JUMPDEST SWAP2 SWAP1 POP SSTORE DUP2 MSTORE PUSH1 0x20 ADD SWAP1 DUP2 MSTORE PUSH1 0x20 ADD PUSH1 0x0 KECCAK256 SWAP1 POP DUP4 DUP2 PUSH1 0x0 ADD SWAP1 DUP2 PUSH2 0x49D SWAP2 SWAP1 PUSH2 0xD95 JUMP JUMPDEST POP DUP3 DUP2 PUSH1 0x1 ADD DUP2 SWAP1 SSTORE POP DUP2 DUP2 PUSH1 0x2 ADD PUSH1 0x0 PUSH2 0x100 EXP DUP2 SLOAD DUP2 PUSH20 0xFFFFFFFFFFFFFFFFFFFFFFFFFFFFFFFFFFFFFFFF MUL NOT AND SWAP1 DUP4 PUSH20 0xFFFFFFFFFFFFFFFFFFFFFFFFFFFFFFFFFFFFFFFF AND MUL OR SWAP1 SSTORE POP PUSH1 0x0 DUP2 PUSH1 0x2 ADD PUSH1 0x14 PUSH2 0x100 EXP DUP2 SLOAD DUP2 PUSH1 0xFF MUL NOT AND SWAP1 DUP4 ISZERO ISZERO MUL OR SWAP1 SSTORE POP PUSH1 0x0 DUP2 PUSH1 0x3 ADD DUP2 SWAP1 SSTORE POP POP POP POP POP JUMP JUMPDEST PUSH1 0x1 SLOAD DUP2 JUMP JUMPDEST PUSH1 0x1 SLOAD CALLVALUE GT PUSH2 0x52B JUMPI PUSH1 0x0 DUP1 REVERT JUMPDEST PUSH1 0x1 PUSH1 0x3 PUSH1 0x0 CALLER PUSH20 0xFFFFFFFFFFFFFFFFFFFFFFFFFFFFFFFFFFFFFFFF AND PUSH20 0xFFFFFFFFFFFFFFFFFFFFFFFFFFFFFFFFFFFFFFFF AND DUP2 MSTORE PUSH1 0x20 ADD SWAP1 DUP2 MSTORE PUSH1 0x20 ADD PUSH1 0x0 KECCAK256 PUSH1 0x0 PUSH2 0x100 EXP DUP2 SLOAD DUP2 PUSH1 0xFF MUL NOT AND SWAP1 DUP4 ISZERO ISZERO MUL OR SWAP1 SSTORE POP PUSH1 0x2 PUSH1 0x0 DUP2 SLOAD DUP1 SWAP3 SWAP2 SWAP1 PUSH2 0x596 SWAP1 PUSH2 0xB36 JUMP JUMPDEST SWAP2 SWAP1 POP SSTORE POP JUMP JUMPDEST PUSH1 0x0 PUSH1 0x5 PUSH1 0x0 DUP4 DUP2 MSTORE PUSH1 0x20 ADD SWAP1 DUP2 MSTORE PUSH1 0x20 ADD PUSH1 0x0 KECCAK256 SWAP1 POP PUSH1 0x3 PUSH1 0x0 CALLER PUSH20 0xFFFFFFFFFFFFFFFFFFFFFFFFFFFFFFFFFFFFFFFF AND PUSH20 0xFFFFFFFFFFFFFFFFFFFFFFFFFFFFFFFFFFFFFFFF AND DUP2 MSTORE PUSH1 0x20 ADD SWAP1 DUP2 MSTORE PUSH1 0x20 ADD PUSH1 0x0 KECCAK256 PUSH1 0x0 SWAP1 SLOAD SWAP1 PUSH2 0x100 EXP SWAP1 DIV PUSH1 0xFF AND PUSH2 0x60A JUMPI PUSH1 0x0 DUP1 REVERT JUMPDEST PUSH1 0x4 SLOAD DUP3 LT PUSH2 0x618 JUMPI PUSH1 0x0 DUP1 REVERT JUMPDEST DUP1 PUSH1 0x4 ADD PUSH1 0x0 CALLER PUSH20 0xFFFFFFFFFFFFFFFFFFFFFFFFFFFFFFFFFFFFFFFF AND PUSH20 0xFFFFFFFFFFFFFFFFFFFFFFFFFFFFFFFFFFFFFFFF AND DUP2 MSTORE PUSH1 0x20 ADD SWAP1 DUP2 MSTORE PUSH1 0x20 ADD PUSH1 0x0 KECCAK256 PUSH1 0x0 SWAP1 SLOAD SWAP1 PUSH2 0x100 EXP SWAP1 DIV PUSH1 0xFF AND ISZERO PUSH2 0x671 JUMPI PUSH1 0x0 DUP1 REVERT JUMPDEST DUP1 PUSH1 0x3 ADD PUSH1 0x0 DUP2 SLOAD DUP1 SWAP3 SWAP2 SWAP1 PUSH2 0x686 SWAP1 PUSH2 0xB36 JUMP JUMPDEST SWAP2 SWAP1 POP SSTORE POP PUSH1 0x1 DUP2 PUSH1 0x4 ADD PUSH1 0x0 CALLER PUSH20 0xFFFFFFFFFFFFFFFFFFFFFFFFFFFFFFFFFFFFFFFF AND PUSH20 0xFFFFFFFFFFFFFFFFFFFFFFFFFFFFFFFFFFFFFFFF AND DUP2 MSTORE PUSH1 0x20 ADD SWAP1 DUP2 MSTORE PUSH1 0x20 ADD PUSH1 0x0 KECCAK256 PUSH1 0x0 PUSH2 0x100 EXP DUP2 SLOAD DUP2 PUSH1 0xFF MUL NOT AND SWAP1 DUP4 ISZERO ISZERO MUL OR SWAP1 SSTORE POP POP POP JUMP JUMPDEST PUSH1 0x0 PUSH1 0x40 MLOAD SWAP1 POP SWAP1 JUMP JUMPDEST PUSH1 0x0 DUP1 REVERT JUMPDEST PUSH1 0x0 DUP1 REVERT JUMPDEST PUSH1 0x0 DUP2 SWAP1 POP SWAP2 SWAP1 POP JUMP JUMPDEST PUSH2 0x710 DUP2 PUSH2 0x6FD JUMP JUMPDEST DUP2 EQ PUSH2 0x71B JUMPI PUSH1 0x0 DUP1 REVERT JUMPDEST POP JUMP JUMPDEST PUSH1 0x0 DUP2 CALLDATALOAD SWAP1 POP PUSH2 0x72D DUP2 PUSH2 0x707 JUMP JUMPDEST SWAP3 SWAP2 POP POP JUMP JUMPDEST PUSH1 0x0 PUSH1 0x20 DUP3 DUP5 SUB SLT ISZERO PUSH2 0x749 JUMPI PUSH2 0x748 PUSH2 0x6F3 JUMP JUMPDEST JUMPDEST PUSH1 0x0 PUSH2 0x757 DUP5 DUP3 DUP6 ADD PUSH2 0x71E JUMP JUMPDEST SWAP2 POP POP SWAP3 SWAP2 POP POP JUMP JUMPDEST PUSH1 0x0 PUSH20 0xFFFFFFFFFFFFFFFFFFFFFFFFFFFFFFFFFFFFFFFF DUP3 AND SWAP1 POP SWAP2 SWAP1 POP JUMP JUMPDEST PUSH1 0x0 PUSH2 0x78B DUP3 PUSH2 0x760 JUMP JUMPDEST SWAP1 POP SWAP2 SWAP1 POP JUMP JUMPDEST PUSH2 0x79B DUP2 PUSH2 0x780 JUMP JUMPDEST DUP2 EQ PUSH2 0x7A6 JUMPI PUSH1 0x0 DUP1 REVERT JUMPDEST POP JUMP JUMPDEST PUSH1 0x0 DUP2 CALLDATALOAD SWAP1 POP PUSH2 0x7B8 DUP2 PUSH2 0x792 JUMP JUMPDEST SWAP3 SWAP2 POP POP JUMP JUMPDEST PUSH1 0x0 PUSH1 0x20 DUP3 DUP5 SUB SLT ISZERO PUSH2 0x7D4 JUMPI PUSH2 0x7D3 PUSH2 0x6F3 JUMP JUMPDEST JUMPDEST PUSH1 0x0 PUSH2 0x7E2 DUP5 DUP3 DUP6 ADD PUSH2 0x7A9 JUMP JUMPDEST SWAP2 POP POP SWAP3 SWAP2 POP POP JUMP JUMPDEST PUSH1 0x0 DUP2 ISZERO ISZERO SWAP1 POP SWAP2 SWAP1 POP JUMP JUMPDEST PUSH2 0x800 DUP2 PUSH2 0x7EB JUMP JUMPDEST DUP3 MSTORE POP POP JUMP JUMPDEST PUSH1 0x0 PUSH1 0x20 DUP3 ADD SWAP1 POP PUSH2 0x81B PUSH1 0x0 DUP4 ADD DUP5 PUSH2 0x7F7 JUMP JUMPDEST SWAP3 SWAP2 POP POP JUMP JUMPDEST PUSH2 0x82A DUP2 PUSH2 0x780 JUMP JUMPDEST DUP3 MSTORE POP POP JUMP JUMPDEST PUSH1 0x0 PUSH1 0x20 DUP3 ADD SWAP1 POP PUSH2 0x845 PUSH1 0x0 DUP4 ADD DUP5 PUSH2 0x821 JUMP JUMPDEST SWAP3 SWAP2 POP POP JUMP JUMPDEST PUSH2 0x854 DUP2 PUSH2 0x6FD JUMP JUMPDEST DUP3 MSTORE POP POP JUMP JUMPDEST PUSH1 0x0 PUSH1 0x20 DUP3 ADD SWAP1 POP PUSH2 0x86F PUSH1 0x0 DUP4 ADD DUP5 PUSH2 0x84B JUMP JUMPDEST SWAP3 SWAP2 POP POP JUMP JUMPDEST PUSH1 0x0 DUP1 REVERT JUMPDEST PUSH1 0x0 DUP1 REVERT JUMPDEST PUSH1 0x0 PUSH1 0x1F NOT PUSH1 0x1F DUP4 ADD AND SWAP1 POP SWAP2 SWAP1 POP JUMP JUMPDEST PUSH32 0x4E487B7100000000000000000000000000000000000000000000000000000000 PUSH1 0x0 MSTORE PUSH1 0x41 PUSH1 0x4 MSTORE PUSH1 0x24 PUSH1 0x0 REVERT JUMPDEST PUSH2 0x8C8 DUP3 PUSH2 0x87F JUMP JUMPDEST DUP2 ADD DUP2 DUP2 LT PUSH8 0xFFFFFFFFFFFFFFFF DUP3 GT OR ISZERO PUSH2 0x8E7 JUMPI PUSH2 0x8E6 PUSH2 0x890 JUMP JUMPDEST JUMPDEST DUP1 PUSH1 0x40 MSTORE POP POP POP JUMP JUMPDEST PUSH1 0x0 PUSH2 0x8FA PUSH2 0x6E9 JUMP JUMPDEST SWAP1 POP PUSH2 0x906 DUP3 DUP3 PUSH2 0x8BF JUMP JUMPDEST SWAP2 SWAP1 POP JUMP JUMPDEST PUSH1 0x0 PUSH8 0xFFFFFFFFFFFFFFFF DUP3 GT ISZERO PUSH2 0x926 JUMPI PUSH2 0x925 PUSH2 0x890 JUMP JUMPDEST JUMPDEST PUSH2 0x92F DUP3 PUSH2 0x87F JUMP JUMPDEST SWAP1 POP PUSH1 0x20 DUP2 ADD SWAP1 POP SWAP2 SWAP1 POP JUMP JUMPDEST DUP3 DUP2 DUP4 CALLDATACOPY PUSH1 0x0 DUP4 DUP4 ADD MSTORE POP POP POP JUMP JUMPDEST PUSH1 0x0 PUSH2 0x95E PUSH2 0x959 DUP5 PUSH2 0x90B JUMP JUMPDEST PUSH2 0x8F0 JUMP JUMPDEST SWAP1 POP DUP3 DUP2 MSTORE PUSH1 0x20 DUP2 ADD DUP5 DUP5 DUP5 ADD GT ISZERO PUSH2 0x97A JUMPI PUSH2 0x979 PUSH2 0x87A JUMP JUMPDEST JUMPDEST PUSH2 0x985 DUP5 DUP3 DUP6 PUSH2 0x93C JUMP JUMPDEST POP SWAP4 SWAP3 POP POP POP JUMP JUMPDEST PUSH1 0x0 DUP3 PUSH1 0x1F DUP4 ADD SLT PUSH2 0x9A2 JUMPI PUSH2 0x9A1 PUSH2 0x875 JUMP JUMPDEST JUMPDEST DUP2 CALLDATALOAD PUSH2 0x9B2 DUP5 DUP3 PUSH1 0x20 DUP7 ADD PUSH2 0x94B JUMP JUMPDEST SWAP2 POP POP SWAP3 SWAP2 POP POP JUMP JUMPDEST PUSH1 0x0 DUP1 PUSH1 0x0 PUSH1 0x60 DUP5 DUP7 SUB SLT ISZERO PUSH2 0x9D4 JUMPI PUSH2 0x9D3 PUSH2 0x6F3 JUMP JUMPDEST JUMPDEST PUSH1 0x0 DUP5 ADD CALLDATALOAD PUSH8 0xFFFFFFFFFFFFFFFF DUP2 GT ISZERO PUSH2 0x9F2 JUMPI PUSH2 0x9F1 PUSH2 0x6F8 JUMP JUMPDEST JUMPDEST PUSH2 0x9FE DUP7 DUP3 DUP8 ADD PUSH2 0x98D JUMP JUMPDEST SWAP4 POP POP PUSH1 0x20 PUSH2 0xA0F DUP7 DUP3 DUP8 ADD PUSH2 0x71E JUMP JUMPDEST SWAP3 POP POP PUSH1 0x40 PUSH2 0xA20 DUP7 DUP3 DUP8 ADD PUSH2 0x7A9 JUMP JUMPDEST SWAP2 POP POP SWAP3 POP SWAP3 POP SWAP3 JUMP JUMPDEST PUSH1 0x0 DUP3 DUP3 MSTORE PUSH1 0x20 DUP3 ADD SWAP1 POP SWAP3 SWAP2 POP POP JUMP JUMPDEST PUSH32 0x796F7520617265206E6F7420746865206D616E61676572210000000000000000 PUSH1 0x0 DUP3 ADD MSTORE POP JUMP JUMPDEST PUSH1 0x0 PUSH2 0xA71 PUSH1 0x18 DUP4 PUSH2 0xA2A JUMP JUMPDEST SWAP2 POP PUSH2 0xA7C DUP3 PUSH2 0xA3B JUMP JUMPDEST PUSH1 0x20 DUP3 ADD SWAP1 POP SWAP2 SWAP1 POP JUMP JUMPDEST PUSH1 0x0 PUSH1 0x20 DUP3 ADD SWAP1 POP DUP2 DUP2 SUB PUSH1 0x0 DUP4 ADD MSTORE PUSH2 0xAA0 DUP2 PUSH2 0xA64 JUMP JUMPDEST SWAP1 POP SWAP2 SWAP1 POP JUMP JUMPDEST PUSH32 0x4E487B7100000000000000000000000000000000000000000000000000000000 PUSH1 0x0 MSTORE PUSH1 0x12 PUSH1 0x4 MSTORE PUSH1 0x24 PUSH1 0x0 REVERT JUMPDEST PUSH32 0x4E487B7100000000000000000000000000000000000000000000000000000000 PUSH1 0x0 MSTORE PUSH1 0x11 PUSH1 0x4 MSTORE PUSH1 0x24 PUSH1 0x0 REVERT JUMPDEST PUSH1 0x0 PUSH2 0xB10 DUP3 PUSH2 0x6FD JUMP JUMPDEST SWAP2 POP PUSH2 0xB1B DUP4 PUSH2 0x6FD JUMP JUMPDEST SWAP3 POP DUP3 PUSH2 0xB2B JUMPI PUSH2 0xB2A PUSH2 0xAA7 JUMP JUMPDEST JUMPDEST DUP3 DUP3 DIV SWAP1 POP SWAP3 SWAP2 POP POP JUMP JUMPDEST PUSH1 0x0 PUSH2 0xB41 DUP3 PUSH2 0x6FD JUMP JUMPDEST SWAP2 POP PUSH32 0xFFFFFFFFFFFFFFFFFFFFFFFFFFFFFFFFFFFFFFFFFFFFFFFFFFFFFFFFFFFFFFFF DUP3 SUB PUSH2 0xB73 JUMPI PUSH2 0xB72 PUSH2 0xAD6 JUMP JUMPDEST JUMPDEST PUSH1 0x1 DUP3 ADD SWAP1 POP SWAP2 SWAP1 POP JUMP JUMPDEST PUSH1 0x0 DUP2 MLOAD SWAP1 POP SWAP2 SWAP1 POP JUMP JUMPDEST PUSH32 0x4E487B7100000000000000000000000000000000000000000000000000000000 PUSH1 0x0 MSTORE PUSH1 0x22 PUSH1 0x4 MSTORE PUSH1 0x24 PUSH1 0x0 REVERT JUMPDEST PUSH1 0x0 PUSH1 0x2 DUP3 DIV SWAP1 POP PUSH1 0x1 DUP3 AND DUP1 PUSH2 0xBD0 JUMPI PUSH1 0x7F DUP3 AND SWAP2 POP JUMPDEST PUSH1 0x20 DUP3 LT DUP2 SUB PUSH2 0xBE3 JUMPI PUSH2 0xBE2 PUSH2 0xB89 JUMP JUMPDEST JUMPDEST POP SWAP2 SWAP1 POP JUMP JUMPDEST PUSH1 0x0 DUP2 SWAP1 POP DUP2 PUSH1 0x0 MSTORE PUSH1 0x20 PUSH1 0x0 KECCAK256 SWAP1 POP SWAP2 SWAP1 POP JUMP JUMPDEST PUSH1 0x0 PUSH1 0x20 PUSH1 0x1F DUP4 ADD DIV SWAP1 POP SWAP2 SWAP1 POP JUMP JUMPDEST PUSH1 0x0 DUP3 DUP3 SHL SWAP1 POP SWAP3 SWAP2 POP POP JUMP JUMPDEST PUSH1 0x0 PUSH1 0x8 DUP4 MUL PUSH2 0xC4B PUSH32 0xFFFFFFFFFFFFFFFFFFFFFFFFFFFFFFFFFFFFFFFFFFFFFFFFFFFFFFFFFFFFFFFF DUP3 PUSH2 0xC0E JUMP JUMPDEST PUSH2 0xC55 DUP7 DUP4 PUSH2 0xC0E JUMP JUMPDEST SWAP6 POP DUP1 NOT DUP5 AND SWAP4 POP DUP1 DUP7 AND DUP5 OR SWAP3 POP POP POP SWAP4 SWAP3 POP POP POP JUMP JUMPDEST PUSH1 0x0 DUP2 SWAP1 POP SWAP2 SWAP1 POP JUMP JUMPDEST PUSH1 0x0 PUSH2 0xC92 PUSH2 0xC8D PUSH2 0xC88 DUP5 PUSH2 0x6FD JUMP JUMPDEST PUSH2 0xC6D JUMP JUMPDEST PUSH2 0x6FD JUMP JUMPDEST SWAP1 POP SWAP2 SWAP1 POP JUMP JUMPDEST PUSH1 0x0 DUP2 SWAP1 POP SWAP2 SWAP1 POP JUMP JUMPDEST PUSH2 0xCAC DUP4 PUSH2 0xC77 JUMP JUMPDEST PUSH2 0xCC0 PUSH2 0xCB8 DUP3 PUSH2 0xC99 JUMP JUMPDEST DUP5 DUP5 SLOAD PUSH2 0xC1B JUMP JUMPDEST DUP3 SSTORE POP POP POP POP JUMP JUMPDEST PUSH1 0x0 SWAP1 JUMP JUMPDEST PUSH2 0xCD5 PUSH2 0xCC8 JUMP JUMPDEST PUSH2 0xCE0 DUP2 DUP5 DUP5 PUSH2 0xCA3 JUMP JUMPDEST POP POP POP JUMP JUMPDEST JUMPDEST DUP2 DUP2 LT ISZERO PUSH2 0xD04 JUMPI PUSH2 0xCF9 PUSH1 0x0 DUP3 PUSH2 0xCCD JUMP JUMPDEST PUSH1 0x1 DUP2 ADD SWAP1 POP PUSH2 0xCE6 JUMP JUMPDEST POP POP JUMP JUMPDEST PUSH1 0x1F DUP3 GT ISZERO PUSH2 0xD49 JUMPI PUSH2 0xD1A DUP2 PUSH2 0xBE9 JUMP JUMPDEST PUSH2 0xD23 DUP5 PUSH2 0xBFE JUMP JUMPDEST DUP2 ADD PUSH1 0x20 DUP6 LT ISZERO PUSH2 0xD32 JUMPI DUP2 SWAP1 POP JUMPDEST PUSH2 0xD46 PUSH2 0xD3E DUP6 PUSH2 0xBFE JUMP JUMPDEST DUP4 ADD DUP3 PUSH2 0xCE5 JUMP JUMPDEST POP POP JUMPDEST POP POP POP JUMP JUMPDEST PUSH1 0x0 DUP3 DUP3 SHR SWAP1 POP SWAP3 SWAP2 POP POP JUMP JUMPDEST PUSH1 0x0 PUSH2 0xD6C PUSH1 0x0 NOT DUP5 PUSH1 0x8 MUL PUSH2 0xD4E JUMP JUMPDEST NOT DUP1 DUP4 AND SWAP2 POP POP SWAP3 SWAP2 POP POP JUMP JUMPDEST PUSH1 0x0 PUSH2 0xD85 DUP4 DUP4 PUSH2 0xD5B JUMP JUMPDEST SWAP2 POP DUP3 PUSH1 0x2 MUL DUP3 OR SWAP1 POP SWAP3 SWAP2 POP POP JUMP JUMPDEST PUSH2 0xD9E DUP3 PUSH2 0xB7E JUMP JUMPDEST PUSH8 0xFFFFFFFFFFFFFFFF DUP2 GT ISZERO PUSH2 0xDB7 JUMPI PUSH2 0xDB6 PUSH2 0x890 JUMP JUMPDEST JUMPDEST PUSH2 0xDC1 DUP3 SLOAD PUSH2 0xBB8 JUMP JUMPDEST PUSH2 0xDCC DUP3 DUP3 DUP6 PUSH2 0xD08 JUMP JUMPDEST PUSH1 0x0 PUSH1 0x20 SWAP1 POP PUSH1 0x1F DUP4 GT PUSH1 0x1 DUP2 EQ PUSH2 0xDFF JUMPI PUSH1 0x0 DUP5 ISZERO PUSH2 0xDED JUMPI DUP3 DUP8 ADD MLOAD SWAP1 POP JUMPDEST PUSH2 0xDF7 DUP6 DUP3 PUSH2 0xD79 JUMP JUMPDEST DUP7 SSTORE POP PUSH2 0xE5F JUMP JUMPDEST PUSH1 0x1F NOT DUP5 AND PUSH2 0xE0D DUP7 PUSH2 0xBE9 JUMP JUMPDEST PUSH1 0x0 JUMPDEST DUP3 DUP2 LT ISZERO PUSH2 0xE35 JUMPI DUP5 DUP10 ADD MLOAD DUP3 SSTORE PUSH1 0x1 DUP3 ADD SWAP2 POP PUSH1 0x20 DUP6 ADD SWAP5 POP PUSH1 0x20 DUP2 ADD SWAP1 POP PUSH2 0xE10 JUMP JUMPDEST DUP7 DUP4 LT ISZERO PUSH2 0xE52 JUMPI DUP5 DUP10 ADD MLOAD PUSH2 0xE4E PUSH1 0x1F DUP10 AND DUP3 PUSH2 0xD5B JUMP JUMPDEST DUP4 SSTORE POP JUMPDEST PUSH1 0x1 PUSH1 0x2 DUP9 MUL ADD DUP9 SSTORE POP POP POP JUMPDEST POP POP POP POP POP POP JUMP INVALID LOG2 PUSH5 0x6970667358 0x22 SLT KECCAK256 SWAP16 DUP2 CREATE2 0x2D DUP14 LOG1 PUSH16 0x830807ABD35A97092B09DEBBEF6DBA5B 0xB5 0xC4 EQ POP 0xEE BASEFEE PUSH21 0xD7464736F6C63430008110033A264697066735822 SLT KECCAK256 GAS SWAP8 0xDF 0xD6 EXTCODEHASH 0xB5 SIGNEXTEND DUP2 XOR PUSH11 0x5901F0389BD32EE9754700 0xE0 0xAB DUP4 DUP15 0xDA 0x49 NUMBER 0xE8 MUL PUSH17 0x8864736F6C634300081100330000000000 "},"gasEstimates":{"creation":{"codeDepositCost":"1042400","executionCost":"1080","totalCost":"1043480"},"external":{"createCampain(uint256)":"infinite","deployedCampains(uint256)":"4934","getDeployedCampains()":"infinite"}},"methodIdentifiers":{"createCampain(uint256)":"d9c4ee1e","deployedCampains(uint256)":"4af9edfe","getDeployedCampains()":"939fc276"}},"storageLayout":{"storage":[{"astId":4,"contract":"Campain.sol:CampainFactory","label":"deployedCampains","offset":0,"slot":"0","type":"t_array(t_address)dyn_storage"}],"types":{"t_address":{"encoding":"inplace","label":"address","numberOfBytes":"20"},"t_array(t_address)dyn_storage":{"base":"t_address","encoding":"dynamic_array","label":"address[]","numberOfBytes":"32"}}},"userdoc":{"kind":"user","methods":{},"version":1}}